{
  "contractName": "Payroll",
  "abi": [
    {
      "constant": true,
      "inputs": [],
      "name": "owner",
      "outputs": [
        {
          "name": "",
          "type": "address"
        }
      ],
      "payable": false,
      "stateMutability": "view",
      "type": "function"
    },
    {
      "constant": true,
      "inputs": [
        {
          "name": "",
          "type": "address"
        }
      ],
      "name": "employees",
      "outputs": [
        {
          "name": "id",
          "type": "address"
        },
        {
          "name": "salary",
          "type": "uint256"
        },
        {
          "name": "lastPayday",
          "type": "uint256"
        }
      ],
      "payable": false,
      "stateMutability": "view",
      "type": "function"
    },
    {
      "constant": false,
      "inputs": [
        {
          "name": "newOwner",
          "type": "address"
        }
      ],
      "name": "transferOwnership",
      "outputs": [],
      "payable": false,
      "stateMutability": "nonpayable",
      "type": "function"
    },
    {
      "anonymous": false,
      "inputs": [
        {
          "indexed": true,
          "name": "previousOwner",
          "type": "address"
        },
        {
          "indexed": true,
          "name": "newOwner",
          "type": "address"
        }
      ],
      "name": "OwnershipTransferred",
      "type": "event"
    },
    {
      "constant": false,
      "inputs": [
        {
          "name": "employeeId",
          "type": "address"
        },
        {
          "name": "salary",
          "type": "uint256"
        }
      ],
      "name": "addEmployee",
      "outputs": [],
      "payable": false,
      "stateMutability": "nonpayable",
      "type": "function"
    },
    {
      "constant": false,
      "inputs": [
        {
          "name": "employeeId",
          "type": "address"
        }
      ],
      "name": "removeEmployee",
      "outputs": [],
      "payable": false,
      "stateMutability": "nonpayable",
      "type": "function"
    },
    {
      "constant": false,
      "inputs": [
        {
          "name": "employeeId",
          "type": "address"
        },
        {
          "name": "salary",
          "type": "uint256"
        }
      ],
      "name": "updateEmployee",
      "outputs": [],
      "payable": false,
      "stateMutability": "nonpayable",
      "type": "function"
    },
    {
      "constant": false,
      "inputs": [],
      "name": "addFund",
      "outputs": [
        {
          "name": "",
          "type": "uint256"
        }
      ],
      "payable": true,
      "stateMutability": "payable",
      "type": "function"
    },
    {
      "constant": false,
      "inputs": [],
      "name": "calculateRunway",
      "outputs": [
        {
          "name": "",
          "type": "uint256"
        }
      ],
      "payable": false,
      "stateMutability": "nonpayable",
      "type": "function"
    },
    {
      "constant": false,
      "inputs": [],
      "name": "hasEnoughFund",
      "outputs": [
        {
          "name": "",
          "type": "bool"
        }
      ],
      "payable": false,
      "stateMutability": "nonpayable",
      "type": "function"
    },
    {
      "constant": false,
      "inputs": [],
      "name": "getPaid",
      "outputs": [],
      "payable": false,
      "stateMutability": "nonpayable",
      "type": "function"
    },
    {
      "constant": false,
      "inputs": [
        {
          "name": "oldEmployeeId",
          "type": "address"
        },
        {
          "name": "newEmployeeId",
          "type": "address"
        }
      ],
      "name": "changePaymentAddress",
      "outputs": [],
      "payable": false,
      "stateMutability": "nonpayable",
      "type": "function"
    }
  ],
  "bytecode": "0x60606040526000600255336000806101000a81548173ffffffffffffffffffffffffffffffffffffffff021916908373ffffffffffffffffffffffffffffffffffffffff160217905550611091806100586000396000f3006060604052600436106100af576000357c0100000000000000000000000000000000000000000000000000000000900463ffffffff16806323fed09e146100b45780634ec19512146100e15780635e91d8ec1461010a5780638da5cb5b1461014c578063a2f09dfa146101a1578063bc456c42146101bf578063cf41d6f814610217578063d06789471461022c578063d108177a146102b3578063e7fd9a13146102ec578063f2fde38b1461032e575b600080fd5b34156100bf57600080fd5b6100c7610367565b604051808215151515815260200191505060405180910390f35b34156100ec57600080fd5b6100f4610378565b6040518082815260200191505060405180910390f35b341561011557600080fd5b61014a600480803573ffffffffffffffffffffffffffffffffffffffff169060200190919080359060200190919050506103ab565b005b341561015757600080fd5b61015f610641565b604051808273ffffffffffffffffffffffffffffffffffffffff1673ffffffffffffffffffffffffffffffffffffffff16815260200191505060405180910390f35b6101a9610666565b6040518082815260200191505060405180910390f35b34156101ca57600080fd5b610215600480803573ffffffffffffffffffffffffffffffffffffffff1690602001909190803573ffffffffffffffffffffffffffffffffffffffff16906020019091905050610685565b005b341561022257600080fd5b61022a6107cc565b005b341561023757600080fd5b610263600480803573ffffffffffffffffffffffffffffffffffffffff16906020019091905050610975565b604051808473ffffffffffffffffffffffffffffffffffffffff1673ffffffffffffffffffffffffffffffffffffffff168152602001838152602001828152602001935050505060405180910390f35b34156102be57600080fd5b6102ea600480803573ffffffffffffffffffffffffffffffffffffffff169060200190919050506109bf565b005b34156102f757600080fd5b61032c600480803573ffffffffffffffffffffffffffffffffffffffff16906020019091908035906020019091905050610c05565b005b341561033957600080fd5b610365600480803573ffffffffffffffffffffffffffffffffffffffff16906020019091905050610df7565b005b600080610372610378565b11905090565b60006103a66002543073ffffffffffffffffffffffffffffffffffffffff1631610f4c90919063ffffffff16565b905090565b6000806000809054906101000a900473ffffffffffffffffffffffffffffffffffffffff1673ffffffffffffffffffffffffffffffffffffffff163373ffffffffffffffffffffffffffffffffffffffff1614151561040957600080fd5b836000600160008373ffffffffffffffffffffffffffffffffffffffff1673ffffffffffffffffffffffffffffffffffffffff168152602001908152602001600020905060008160000160009054906101000a900473ffffffffffffffffffffffffffffffffffffffff1673ffffffffffffffffffffffffffffffffffffffff161415151561049457fe5b600160008773ffffffffffffffffffffffffffffffffffffffff1673ffffffffffffffffffffffffffffffffffffffff168152602001908152602001600020935061055484606060405190810160405290816000820160009054906101000a900473ffffffffffffffffffffffffffffffffffffffff1673ffffffffffffffffffffffffffffffffffffffff1673ffffffffffffffffffffffffffffffffffffffff16815260200160018201548152602001600282015481525050610f67565b61056d8460010154600254610ff390919063ffffffff16565b60028190555061058e670de0b6b3a76400008661100c90919063ffffffff16565b92506105a58360025461104790919063ffffffff16565b60028190555082600160008873ffffffffffffffffffffffffffffffffffffffff1673ffffffffffffffffffffffffffffffffffffffff1681526020019081526020016000206001018190555042600160008873ffffffffffffffffffffffffffffffffffffffff1673ffffffffffffffffffffffffffffffffffffffff16815260200190815260200160002060020181905550505050505050565b6000809054906101000a900473ffffffffffffffffffffffffffffffffffffffff1681565b60003073ffffffffffffffffffffffffffffffffffffffff1631905090565b60008060009054906101000a900473ffffffffffffffffffffffffffffffffffffffff1673ffffffffffffffffffffffffffffffffffffffff163373ffffffffffffffffffffffffffffffffffffffff161415156106e257600080fd5b826000600160008373ffffffffffffffffffffffffffffffffffffffff1673ffffffffffffffffffffffffffffffffffffffff168152602001908152602001600020905060008160000160009054906101000a900473ffffffffffffffffffffffffffffffffffffffff1673ffffffffffffffffffffffffffffffffffffffff161415151561076d57fe5b600160008673ffffffffffffffffffffffffffffffffffffffff1673ffffffffffffffffffffffffffffffffffffffff1681526020019081526020016000206001015492506107bb856109bf565b6107c58484610c05565b5050505050565b600080336000600160008373ffffffffffffffffffffffffffffffffffffffff1673ffffffffffffffffffffffffffffffffffffffff168152602001908152602001600020905060008160000160009054906101000a900473ffffffffffffffffffffffffffffffffffffffff1673ffffffffffffffffffffffffffffffffffffffff161415151561085a57fe5b600160003373ffffffffffffffffffffffffffffffffffffffff1673ffffffffffffffffffffffffffffffffffffffff16815260200190815260200160002093506108b3600a856002015461104790919063ffffffff16565b925042831015156108c057fe5b82600160003373ffffffffffffffffffffffffffffffffffffffff1673ffffffffffffffffffffffffffffffffffffffff168152602001908152602001600020600201819055508360000160009054906101000a900473ffffffffffffffffffffffffffffffffffffffff1673ffffffffffffffffffffffffffffffffffffffff166108fc85600101549081150290604051600060405180830381858888f19350505050151561096f57600080fd5b50505050565b60016020528060005260406000206000915090508060000160009054906101000a900473ffffffffffffffffffffffffffffffffffffffff16908060010154908060020154905083565b60008060009054906101000a900473ffffffffffffffffffffffffffffffffffffffff1673ffffffffffffffffffffffffffffffffffffffff163373ffffffffffffffffffffffffffffffffffffffff16141515610a1c57600080fd5b816000600160008373ffffffffffffffffffffffffffffffffffffffff1673ffffffffffffffffffffffffffffffffffffffff168152602001908152602001600020905060008160000160009054906101000a900473ffffffffffffffffffffffffffffffffffffffff1673ffffffffffffffffffffffffffffffffffffffff1614151515610aa757fe5b600160008573ffffffffffffffffffffffffffffffffffffffff1673ffffffffffffffffffffffffffffffffffffffff1681526020019081526020016000209250610b6783606060405190810160405290816000820160009054906101000a900473ffffffffffffffffffffffffffffffffffffffff1673ffffffffffffffffffffffffffffffffffffffff1673ffffffffffffffffffffffffffffffffffffffff16815260200160018201548152602001600282015481525050610f67565b610b808360010154600254610ff390919063ffffffff16565b600281905550600160008573ffffffffffffffffffffffffffffffffffffffff1673ffffffffffffffffffffffffffffffffffffffff168152602001908152602001600020600080820160006101000a81549073ffffffffffffffffffffffffffffffffffffffff021916905560018201600090556002820160009055505050505050565b6000806000809054906101000a900473ffffffffffffffffffffffffffffffffffffffff1673ffffffffffffffffffffffffffffffffffffffff163373ffffffffffffffffffffffffffffffffffffffff16141515610c6357600080fd5b600160008573ffffffffffffffffffffffffffffffffffffffff1673ffffffffffffffffffffffffffffffffffffffff168152602001908152602001600020915060008260000160009054906101000a900473ffffffffffffffffffffffffffffffffffffffff1673ffffffffffffffffffffffffffffffffffffffff16141515610cea57fe5b610d05670de0b6b3a76400008461100c90919063ffffffff16565b90506060604051908101604052808573ffffffffffffffffffffffffffffffffffffffff16815260200182815260200142815250600160008673ffffffffffffffffffffffffffffffffffffffff1673ffffffffffffffffffffffffffffffffffffffff16815260200190815260200160002060008201518160000160006101000a81548173ffffffffffffffffffffffffffffffffffffffff021916908373ffffffffffffffffffffffffffffffffffffffff1602179055506020820151816001015560408201518160020155905050610deb8160025461104790919063ffffffff16565b60028190555050505050565b6000809054906101000a900473ffffffffffffffffffffffffffffffffffffffff1673ffffffffffffffffffffffffffffffffffffffff163373ffffffffffffffffffffffffffffffffffffffff16141515610e5257600080fd5b600073ffffffffffffffffffffffffffffffffffffffff168173ffffffffffffffffffffffffffffffffffffffff1614151515610e8e57600080fd5b8073ffffffffffffffffffffffffffffffffffffffff166000809054906101000a900473ffffffffffffffffffffffffffffffffffffffff1673ffffffffffffffffffffffffffffffffffffffff167f8be0079c531659141344cd1fd0a4f28419497f9722a3daafe3b4186f6b6457e060405160405180910390a3806000806101000a81548173ffffffffffffffffffffffffffffffffffffffff021916908373ffffffffffffffffffffffffffffffffffffffff16021790555050565b6000808284811515610f5a57fe5b0490508091505092915050565b6000610fa9600a610f9b610f88856040015142610ff390919063ffffffff16565b856020015161100c90919063ffffffff16565b610f4c90919063ffffffff16565b9050816000015173ffffffffffffffffffffffffffffffffffffffff166108fc829081150290604051600060405180830381858888f193505050501515610fef57600080fd5b5050565b600082821115151561100157fe5b818303905092915050565b60008060008414156110215760009150611040565b828402905082848281151561103257fe5b0414151561103c57fe5b8091505b5092915050565b600080828401905083811015151561105b57fe5b80915050929150505600a165627a7a723058200da049ae1bc16076641521ad8c20d3433a688ff665bc715aaf560247d2a632260029",
  "source": "pragma solidity ^0.4.14;\n\nimport './SafeMath.sol';\nimport './Ownable.sol';\n\n\ncontract Payroll is Ownable {\n    using SafeMath for uint;\n    \n    struct Employee {\n        address id;\n        uint salary;\n        uint lastPayday;\n    }\n    \n    uint constant payDuration = 10 seconds;\n\n    mapping(address=>Employee) public employees;\n    uint totalSalary = 0;\n    \n    modifier employeeExist(address employeeId) {\n       var employee = employees[employeeId];\n       //make sure employee is exist before remove\n       assert(employee.id != 0x0);\n       _;\n    }\n    \n    function _partialPaid(Employee employee) private {\n        uint payment = employee.salary\n            .mul(now.sub(employee.lastPayday))\n            .div(payDuration);\n        employee.id.transfer(payment);\n    }\n    \n    \n    function addEmployee(address employeeId, uint salary) onlyOwner {\n        var employee = employees[employeeId];\n        \n        //makesure employee is not exist before add\n        assert(employee.id == 0x0);\n        uint newSalary = salary.mul(1 ether);\n        employees[employeeId] = Employee(employeeId,newSalary,now);\n        totalSalary = totalSalary.add(newSalary);\n    }\n    \n\n    \n    function removeEmployee(address employeeId) onlyOwner employeeExist(employeeId) {\n       var employee = employees[employeeId];\n       _partialPaid(employee);\n       totalSalary = totalSalary.sub(employee.salary);\n       delete employees[employeeId];\n    }\n    \n    function updateEmployee(address employeeId, uint salary) onlyOwner employeeExist(employeeId) {\n        var employee = employees[employeeId];\n        _partialPaid(employee);\n        totalSalary = totalSalary.sub(employee.salary);\n        uint newSalary = salary.mul(1 ether);\n        totalSalary = totalSalary.add(newSalary);\n        employees[employeeId].salary = newSalary;\n        employees[employeeId].lastPayday = now;\n    }\n    \n    function addFund() payable returns (uint) {\n        return this.balance;\n    }\n    \n    function calculateRunway() returns (uint) {\n        return this.balance.div(totalSalary);\n    }\n    \n    function hasEnoughFund() returns (bool) {\n         return calculateRunway() > 0;\n    }\n    \n    function getPaid() employeeExist(msg.sender) {\n        var employee = employees[msg.sender];\n        uint nextPayday = employee.lastPayday.add(payDuration);\n        assert(nextPayday < now);\n        employees[msg.sender].lastPayday = nextPayday;\n        employee.id.transfer(employee.salary);\n        \n    }\n        \n    function changePaymentAddress (address oldEmployeeId, address newEmployeeId) onlyOwner employeeExist(oldEmployeeId){\n        var salary = employees[oldEmployeeId].salary;\n        removeEmployee(oldEmployeeId);\n        addEmployee(newEmployeeId,salary);\n    }\n    \n}",
  "sourcePath": "/Users/weimeng/Document/leetcode/Team-H/Lesson-4/assignment/contracts/Payroll.sol",
  "compiler": {
    "name": "solc",
    "version": "0.4.19+commit.c4cbbb05.Emscripten.clang"
  },
  "schemaVersion": "2.0.0",
  "updatedAt": "2018-03-23T05:26:07.456Z"
}