{
  "contractName": "Payroll",
  "abi": [
    {
      "constant": true,
      "inputs": [],
      "name": "owner",
      "outputs": [
        {
          "name": "",
          "type": "address"
        }
      ],
      "payable": false,
      "stateMutability": "view",
      "type": "function"
    },
    {
      "constant": true,
      "inputs": [
        {
          "name": "",
          "type": "address"
        }
      ],
      "name": "employees",
      "outputs": [
        {
          "name": "id",
          "type": "address"
        },
        {
          "name": "salary",
          "type": "uint256"
        },
        {
          "name": "lastPayday",
          "type": "uint256"
        }
      ],
      "payable": false,
      "stateMutability": "view",
      "type": "function"
    },
    {
      "constant": false,
      "inputs": [
        {
          "name": "newOwner",
          "type": "address"
        }
      ],
      "name": "transferOwnership",
      "outputs": [],
      "payable": false,
      "stateMutability": "nonpayable",
      "type": "function"
    },
    {
      "anonymous": false,
      "inputs": [
        {
          "indexed": false,
          "name": "empolyeeId",
          "type": "address"
        }
      ],
      "name": "NewEmployee",
      "type": "event"
    },
    {
      "anonymous": false,
      "inputs": [
        {
          "indexed": false,
          "name": "empolyeeId",
          "type": "address"
        }
      ],
      "name": "UpdateEmployee",
      "type": "event"
    },
    {
      "anonymous": false,
      "inputs": [
        {
          "indexed": false,
          "name": "empolyeeId",
          "type": "address"
        }
      ],
      "name": "RemoveEmployee",
      "type": "event"
    },
    {
      "anonymous": false,
      "inputs": [
        {
          "indexed": false,
          "name": "balance",
          "type": "uint256"
        }
      ],
      "name": "NewFund",
      "type": "event"
    },
    {
      "anonymous": false,
      "inputs": [
        {
          "indexed": false,
          "name": "employeeId",
          "type": "address"
        }
      ],
      "name": "GetPaid",
      "type": "event"
    },
    {
      "anonymous": false,
      "inputs": [
        {
          "indexed": true,
          "name": "previousOwner",
          "type": "address"
        },
        {
          "indexed": true,
          "name": "newOwner",
          "type": "address"
        }
      ],
      "name": "OwnershipTransferred",
      "type": "event"
    },
    {
      "constant": false,
      "inputs": [
        {
          "name": "employeeId",
          "type": "address"
        },
        {
          "name": "salary",
          "type": "uint256"
        }
      ],
      "name": "addEmployee",
      "outputs": [],
      "payable": false,
      "stateMutability": "nonpayable",
      "type": "function"
    },
    {
      "constant": false,
      "inputs": [
        {
          "name": "employeeId",
          "type": "address"
        }
      ],
      "name": "removeEmployee",
      "outputs": [],
      "payable": false,
      "stateMutability": "nonpayable",
      "type": "function"
    },
    {
      "constant": false,
      "inputs": [
        {
          "name": "employeeId",
          "type": "address"
        },
        {
          "name": "salary",
          "type": "uint256"
        }
      ],
      "name": "updateEmployee",
      "outputs": [],
      "payable": false,
      "stateMutability": "nonpayable",
      "type": "function"
    },
    {
      "constant": false,
      "inputs": [
        {
          "name": "employeeId",
          "type": "address"
        },
        {
          "name": "employeeNewId",
          "type": "address"
        }
      ],
      "name": "changePaymentAddress",
      "outputs": [],
      "payable": false,
      "stateMutability": "nonpayable",
      "type": "function"
    },
    {
      "constant": false,
      "inputs": [],
      "name": "addFund",
      "outputs": [
        {
          "name": "",
          "type": "uint256"
        }
      ],
      "payable": true,
      "stateMutability": "payable",
      "type": "function"
    },
    {
      "constant": false,
      "inputs": [],
      "name": "calculateRunway",
      "outputs": [
        {
          "name": "",
          "type": "uint256"
        }
      ],
      "payable": false,
      "stateMutability": "nonpayable",
      "type": "function"
    },
    {
      "constant": false,
      "inputs": [],
      "name": "hasEnoughFund",
      "outputs": [
        {
          "name": "",
          "type": "bool"
        }
      ],
      "payable": false,
      "stateMutability": "nonpayable",
      "type": "function"
    },
    {
      "constant": false,
      "inputs": [
        {
          "name": "index",
          "type": "uint256"
        }
      ],
      "name": "checkEmployee",
      "outputs": [
        {
          "name": "employeeId",
          "type": "address"
        },
        {
          "name": "salary",
          "type": "uint256"
        },
        {
          "name": "lastPayday",
          "type": "uint256"
        }
      ],
      "payable": false,
      "stateMutability": "nonpayable",
      "type": "function"
    },
    {
      "constant": false,
      "inputs": [],
      "name": "getPaid",
      "outputs": [],
      "payable": false,
      "stateMutability": "nonpayable",
      "type": "function"
    },
    {
      "constant": false,
      "inputs": [],
      "name": "checkInfo",
      "outputs": [
        {
          "name": "balance",
          "type": "uint256"
        },
        {
          "name": "runway",
          "type": "uint256"
        },
        {
          "name": "employeeCount",
          "type": "uint256"
        }
      ],
      "payable": false,
      "stateMutability": "nonpayable",
      "type": "function"
    }
  ],
  "bytecode": "0x6060604052336000806101000a81548173ffffffffffffffffffffffffffffffffffffffff021916908373ffffffffffffffffffffffffffffffffffffffff160217905550611a18806100536000396000f3006060604052600436106100c5576000357c0100000000000000000000000000000000000000000000000000000000900463ffffffff16806323fed09e146100ca5780634ec19512146100f75780635e91d8ec1461012057806385a96258146101625780638da5cb5b1461019957806396b02696146101ee578063a2f09dfa1461025f578063bc456c421461027d578063cf41d6f8146102d5578063d0678947146102ea578063d108177a14610371578063e7fd9a13146103aa578063f2fde38b146103ec575b600080fd5b34156100d557600080fd5b6100dd610425565b604051808215151515815260200191505060405180910390f35b341561010257600080fd5b61010a610436565b6040518082815260200191505060405180910390f35b341561012b57600080fd5b610160600480803573ffffffffffffffffffffffffffffffffffffffff16906020019091908035906020019091905050610469565b005b341561016d57600080fd5b610175610795565b60405180848152602001838152602001828152602001935050505060405180910390f35b34156101a457600080fd5b6101ac6107d4565b604051808273ffffffffffffffffffffffffffffffffffffffff1673ffffffffffffffffffffffffffffffffffffffff16815260200191505060405180910390f35b34156101f957600080fd5b61020f60048080359060200190919050506107f9565b604051808473ffffffffffffffffffffffffffffffffffffffff1673ffffffffffffffffffffffffffffffffffffffff168152602001838152602001828152602001935050505060405180910390f35b610267610893565b6040518082815260200191505060405180910390f35b341561028857600080fd5b6102d3600480803573ffffffffffffffffffffffffffffffffffffffff1690602001909190803573ffffffffffffffffffffffffffffffffffffffff16906020019091905050610900565b005b34156102e057600080fd5b6102e8610dc8565b005b34156102f557600080fd5b610321600480803573ffffffffffffffffffffffffffffffffffffffff16906020019091905050610fc4565b604051808473ffffffffffffffffffffffffffffffffffffffff1673ffffffffffffffffffffffffffffffffffffffff168152602001838152602001828152602001935050505060405180910390f35b341561037c57600080fd5b6103a8600480803573ffffffffffffffffffffffffffffffffffffffff1690602001909190505061100e565b005b34156103b557600080fd5b6103ea600480803573ffffffffffffffffffffffffffffffffffffffff169060200190919080359060200190919050506113f5565b005b34156103f757600080fd5b610423600480803573ffffffffffffffffffffffffffffffffffffffff169060200190919050506116c4565b005b600080610430610436565b11905090565b60006104646001543073ffffffffffffffffffffffffffffffffffffffff163161181990919063ffffffff16565b905090565b60008060009054906101000a900473ffffffffffffffffffffffffffffffffffffffff1673ffffffffffffffffffffffffffffffffffffffff163373ffffffffffffffffffffffffffffffffffffffff161415156104c657600080fd5b826000600460008373ffffffffffffffffffffffffffffffffffffffff1673ffffffffffffffffffffffffffffffffffffffff168152602001908152602001600020905060008160000160009054906101000a900473ffffffffffffffffffffffffffffffffffffffff1673ffffffffffffffffffffffffffffffffffffffff161415151561055157fe5b600460008673ffffffffffffffffffffffffffffffffffffffff1673ffffffffffffffffffffffffffffffffffffffff168152602001908152602001600020925061061183606060405190810160405290816000820160009054906101000a900473ffffffffffffffffffffffffffffffffffffffff1673ffffffffffffffffffffffffffffffffffffffff1673ffffffffffffffffffffffffffffffffffffffff16815260200160018201548152602001600282015481525050611834565b610668600460008773ffffffffffffffffffffffffffffffffffffffff1673ffffffffffffffffffffffffffffffffffffffff1681526020019081526020016000206001015460015461189990919063ffffffff16565b600181905550670de0b6b3a76400008402600460008773ffffffffffffffffffffffffffffffffffffffff1673ffffffffffffffffffffffffffffffffffffffff1681526020019081526020016000206001018190555042600460008773ffffffffffffffffffffffffffffffffffffffff1673ffffffffffffffffffffffffffffffffffffffff16815260200190815260200160002060020181905550610725670de0b6b3a764000085026001546118b290919063ffffffff16565b6001819055507f488bacda22fcd72c26e796890d62491cef03e8de61cad515b1826a683f2e760f85604051808273ffffffffffffffffffffffffffffffffffffffff1673ffffffffffffffffffffffffffffffffffffffff16815260200191505060405180910390a15050505050565b60008060003073ffffffffffffffffffffffffffffffffffffffff163192506002549050600060015411156107cf576107cc610436565b91505b909192565b6000809054906101000a900473ffffffffffffffffffffffffffffffffffffffff1681565b60008060008060038581548110151561080e57fe5b906000526020600020900160009054906101000a900473ffffffffffffffffffffffffffffffffffffffff169350600460008573ffffffffffffffffffffffffffffffffffffffff1673ffffffffffffffffffffffffffffffffffffffff16815260200190815260200160002090508060010154925080600201549150509193909250565b60007fbe1e4b1ad5d83f75925e2f00ab046fbab2ee90d0dbdf7f2049d037a48ada09f33073ffffffffffffffffffffffffffffffffffffffff16316040518082815260200191505060405180910390a13073ffffffffffffffffffffffffffffffffffffffff1631905090565b60008060009054906101000a900473ffffffffffffffffffffffffffffffffffffffff1673ffffffffffffffffffffffffffffffffffffffff163373ffffffffffffffffffffffffffffffffffffffff1614151561095d57600080fd5b826000600460008373ffffffffffffffffffffffffffffffffffffffff1673ffffffffffffffffffffffffffffffffffffffff168152602001908152602001600020905060008160000160009054906101000a900473ffffffffffffffffffffffffffffffffffffffff1673ffffffffffffffffffffffffffffffffffffffff16141515156109e857fe5b83600460008773ffffffffffffffffffffffffffffffffffffffff1673ffffffffffffffffffffffffffffffffffffffff16815260200190815260200160002060010154600460008873ffffffffffffffffffffffffffffffffffffffff1673ffffffffffffffffffffffffffffffffffffffff168152602001908152602001600020600201546000600460008573ffffffffffffffffffffffffffffffffffffffff1673ffffffffffffffffffffffffffffffffffffffff168152602001908152602001600020905060008160000160009054906101000a900473ffffffffffffffffffffffffffffffffffffffff1673ffffffffffffffffffffffffffffffffffffffff16141515610af857fe5b6060604051908101604052808573ffffffffffffffffffffffffffffffffffffffff16815260200184815260200183815250600460008673ffffffffffffffffffffffffffffffffffffffff1673ffffffffffffffffffffffffffffffffffffffff16815260200190815260200160002060008201518160000160006101000a81548173ffffffffffffffffffffffffffffffffffffffff021916908373ffffffffffffffffffffffffffffffffffffffff1602179055506020820151816001015560408201518160020155905050600460008a73ffffffffffffffffffffffffffffffffffffffff1673ffffffffffffffffffffffffffffffffffffffff168152602001908152602001600020600080820160006101000a81549073ffffffffffffffffffffffffffffffffffffffff021916905560018201600090556002820160009055505060038054806001018281610c54919061196f565b916000526020600020900160008a909190916101000a81548173ffffffffffffffffffffffffffffffffffffffff021916908373ffffffffffffffffffffffffffffffffffffffff16021790555050610cac896118d0565b9650600387815481101515610cbd57fe5b906000526020600020900160006101000a81549073ffffffffffffffffffffffffffffffffffffffff02191690556003610d06600160038054905061189990919063ffffffff16565b815481101515610d1257fe5b906000526020600020900160009054906101000a900473ffffffffffffffffffffffffffffffffffffffff16600388815481101515610d4d57fe5b906000526020600020900160006101000a81548173ffffffffffffffffffffffffffffffffffffffff021916908373ffffffffffffffffffffffffffffffffffffffff160217905550610daf600160038054905061189990919063ffffffff16565b600381610dbc919061199b565b50505050505050505050565b600080336000600460008373ffffffffffffffffffffffffffffffffffffffff1673ffffffffffffffffffffffffffffffffffffffff168152602001908152602001600020905060008160000160009054906101000a900473ffffffffffffffffffffffffffffffffffffffff1673ffffffffffffffffffffffffffffffffffffffff1614151515610e5657fe5b600460003373ffffffffffffffffffffffffffffffffffffffff1673ffffffffffffffffffffffffffffffffffffffff1681526020019081526020016000209350600a84600201540192504283101515610eac57fe5b82600460003373ffffffffffffffffffffffffffffffffffffffff1673ffffffffffffffffffffffffffffffffffffffff168152602001908152602001600020600201819055508360000160009054906101000a900473ffffffffffffffffffffffffffffffffffffffff1673ffffffffffffffffffffffffffffffffffffffff166108fc85600101549081150290604051600060405180830381858888f193505050501515610f5b57600080fd5b7f7decdec0fa70b21ecd45a15b04d5f5313c8fc915a1b3c034aa2bffa4fc8fc59133604051808273ffffffffffffffffffffffffffffffffffffffff1673ffffffffffffffffffffffffffffffffffffffff16815260200191505060405180910390a150505050565b60046020528060005260406000206000915090508060000160009054906101000a900473ffffffffffffffffffffffffffffffffffffffff16908060010154908060020154905083565b60008060008060009054906101000a900473ffffffffffffffffffffffffffffffffffffffff1673ffffffffffffffffffffffffffffffffffffffff163373ffffffffffffffffffffffffffffffffffffffff1614151561106e57600080fd5b836000600460008373ffffffffffffffffffffffffffffffffffffffff1673ffffffffffffffffffffffffffffffffffffffff168152602001908152602001600020905060008160000160009054906101000a900473ffffffffffffffffffffffffffffffffffffffff1673ffffffffffffffffffffffffffffffffffffffff16141515156110f957fe5b600460008773ffffffffffffffffffffffffffffffffffffffff1673ffffffffffffffffffffffffffffffffffffffff1681526020019081526020016000209450846001015493506111c085606060405190810160405290816000820160009054906101000a900473ffffffffffffffffffffffffffffffffffffffff1673ffffffffffffffffffffffffffffffffffffffff1673ffffffffffffffffffffffffffffffffffffffff16815260200160018201548152602001600282015481525050611834565b600460008773ffffffffffffffffffffffffffffffffffffffff1673ffffffffffffffffffffffffffffffffffffffff168152602001908152602001600020600080820160006101000a81549073ffffffffffffffffffffffffffffffffffffffff021916905560018201600090556002820160009055505061124e8460015461189990919063ffffffff16565b60018190555061126a600160025461189990919063ffffffff16565b600281905550611279866118d0565b925060038381548110151561128a57fe5b906000526020600020900160006101000a81549073ffffffffffffffffffffffffffffffffffffffff021916905560036112d3600160038054905061189990919063ffffffff16565b8154811015156112df57fe5b906000526020600020900160009054906101000a900473ffffffffffffffffffffffffffffffffffffffff1660038481548110151561131a57fe5b906000526020600020900160006101000a81548173ffffffffffffffffffffffffffffffffffffffff021916908373ffffffffffffffffffffffffffffffffffffffff16021790555061137c600160038054905061189990919063ffffffff16565b600381611389919061199b565b507f52d6abdca596d1c4a93f3df131dcf3a55ecaaa92ab3a0be58a15b98aab12d49b86604051808273ffffffffffffffffffffffffffffffffffffffff1673ffffffffffffffffffffffffffffffffffffffff16815260200191505060405180910390a1505050505050565b6000809054906101000a900473ffffffffffffffffffffffffffffffffffffffff1673ffffffffffffffffffffffffffffffffffffffff163373ffffffffffffffffffffffffffffffffffffffff1614151561145057600080fd5b81670de0b6b3a76400008202426000600460008573ffffffffffffffffffffffffffffffffffffffff1673ffffffffffffffffffffffffffffffffffffffff168152602001908152602001600020905060008160000160009054906101000a900473ffffffffffffffffffffffffffffffffffffffff1673ffffffffffffffffffffffffffffffffffffffff161415156114e657fe5b6060604051908101604052808573ffffffffffffffffffffffffffffffffffffffff16815260200184815260200183815250600460008673ffffffffffffffffffffffffffffffffffffffff1673ffffffffffffffffffffffffffffffffffffffff16815260200190815260200160002060008201518160000160006101000a81548173ffffffffffffffffffffffffffffffffffffffff021916908373ffffffffffffffffffffffffffffffffffffffff16021790555060208201518160010155604082015181600201559050506115d4670de0b6b3a764000086026001546118b290919063ffffffff16565b6001819055506115f060016002546118b290919063ffffffff16565b6002819055506003805480600101828161160a919061196f565b9160005260206000209001600088909190916101000a81548173ffffffffffffffffffffffffffffffffffffffff021916908373ffffffffffffffffffffffffffffffffffffffff160217905550507f37e9308d0d750d43a2e5ef16b6d47b60b2741e12be41128ca3bec877db4f9dcb86604051808273ffffffffffffffffffffffffffffffffffffffff1673ffffffffffffffffffffffffffffffffffffffff16815260200191505060405180910390a1505050505050565b6000809054906101000a900473ffffffffffffffffffffffffffffffffffffffff1673ffffffffffffffffffffffffffffffffffffffff163373ffffffffffffffffffffffffffffffffffffffff1614151561171f57600080fd5b600073ffffffffffffffffffffffffffffffffffffffff168173ffffffffffffffffffffffffffffffffffffffff161415151561175b57600080fd5b8073ffffffffffffffffffffffffffffffffffffffff166000809054906101000a900473ffffffffffffffffffffffffffffffffffffffff1673ffffffffffffffffffffffffffffffffffffffff167f8be0079c531659141344cd1fd0a4f28419497f9722a3daafe3b4186f6b6457e060405160405180910390a3806000806101000a81548173ffffffffffffffffffffffffffffffffffffffff021916908373ffffffffffffffffffffffffffffffffffffffff16021790555050565b600080828481151561182757fe5b0490508091505092915050565b6000600a8260400151420383602001510281151561184e57fe5b049050816000015173ffffffffffffffffffffffffffffffffffffffff166108fc829081150290604051600060405180830381858888f19350505050151561189557600080fd5b5050565b60008282111515156118a757fe5b818303905092915050565b60008082840190508381101515156118c657fe5b8091505092915050565b600080600090505b600380549050811015611968578273ffffffffffffffffffffffffffffffffffffffff1660038281548110151561190b57fe5b906000526020600020900160009054906101000a900473ffffffffffffffffffffffffffffffffffffffff1673ffffffffffffffffffffffffffffffffffffffff16141561195b57809150611969565b80806001019150506118d8565b5b50919050565b8154818355818115116119965781836000526020600020918201910161199591906119c7565b5b505050565b8154818355818115116119c2578183600052602060002091820191016119c191906119c7565b5b505050565b6119e991905b808211156119e55760008160009055506001016119cd565b5090565b905600a165627a7a72305820658ef424eb78fd46e0e4298d9691bdb46aea860b88f98ec83b575f96875dc5be0029",
  "source": "pragma solidity ^0.4.18;\n\nimport \"zeppelin-solidity/contracts/math/SafeMath.sol\";\nimport \"zeppelin-solidity/contracts/ownership/Ownable.sol\";\n\ncontract Payroll is Ownable {\n    \n    using SafeMath for uint;\n    \n    struct Employee {\n        address id;\n        uint salary;\n        uint lastPayday;\n    }\n    \n    uint constant payDuration = 10 seconds;\n    uint totalSalary;\n    uint totalEmployee;\n    address[] employeeList;\n    mapping(address => Employee) public employees;\n\n    event NewEmployee(address empolyeeId );\n\n    event UpdateEmployee(address empolyeeId );\n\n    event RemoveEmployee(address empolyeeId );\n\n    event NewFund(uint balance);\n\n    event GetPaid(address employeeId);\n\n\n    \n    modifier existsEmployee(address employeeId) {\n        var employee = employees[employeeId];\n        assert(employee.id != 0x0);\n        _;\n    }\n    \n    modifier addEmployeeModifier(address employeeId, uint salary, uint lastPayday) {\n        var employee = employees[employeeId];\n        assert(employee.id == 0x0);\n        employees[employeeId] = Employee(employeeId, salary, lastPayday);\n        _;\n    }\n\n    function _partialPaid(Employee employee) private {\n        uint payment = employee.salary * (now - employee.lastPayday) / payDuration;\n        employee.id.transfer(payment);\n    }\n\n    function _findEmployee(address employeeId) private returns (uint) {\n        \n        for(uint i = 0; i < employeeList.length; i++) {\n            if (employeeList[i] == employeeId) {\n                return i;\n            }\n        }\n        \n    }\n\n    function addEmployee(address employeeId, uint salary) onlyOwner addEmployeeModifier(employeeId, salary * 1 ether, now) {\n        //require(msg.sender == owner);\n        //var employee = employees[employeeId];\n        //assert(employee.id == 0x0);\n        //employees[employeeId] = Employee(employeeId, salary * 1 ether, now);\n        totalSalary = totalSalary.add(salary * 1 ether);\n        totalEmployee = totalEmployee.add(1);\n        employeeList.push(employeeId);\n        NewEmployee(employeeId);\n    }\n    \n    function removeEmployee(address employeeId) onlyOwner existsEmployee(employeeId){\n        //require(msg.sender == owner);\n        var employee = employees[employeeId];\n        var salary = employee.salary;\n        //assert(employee.id != 0x0);\n        _partialPaid(employee);\n        delete employees[employeeId];\n        totalSalary = totalSalary.sub(salary);\n        totalEmployee = totalEmployee.sub(1);\n        var index = _findEmployee(employeeId);\n        delete employeeList[index];\n        employeeList[index] = employeeList[employeeList.length.sub(1)];\n        employeeList.length = employeeList.length.sub(1);\n        RemoveEmployee(employeeId);\n    }\n    \n    function updateEmployee(address employeeId, uint salary) onlyOwner existsEmployee(employeeId) {\n        //require(msg.sender == owner);\n        var employee = employees[employeeId];\n        //assert(employee.id != 0x0);\n        _partialPaid(employee);\n        totalSalary = totalSalary.sub(employees[employeeId].salary);\n        employees[employeeId].salary = salary * 1 ether;\n        employees[employeeId].lastPayday = now;\n        totalSalary = totalSalary.add(salary * 1 ether); \n        UpdateEmployee(employeeId);\n    }\n    \n    function changePaymentAddress(address employeeId, address employeeNewId) onlyOwner existsEmployee(employeeId) addEmployeeModifier(employeeNewId, employees[employeeId].salary, employees[employeeId].lastPayday)  {\n        //var employee = employees[employeeId];\n        //employees[employeeNewId] = Employee(employeeNewId, employee.salary, employee.lastPayday);\n        delete employees[employeeId];\n        employeeList.push(employeeNewId);\n        var index = _findEmployee(employeeId);\n        delete employeeList[index];\n        employeeList[index] = employeeList[employeeList.length.sub(1)];\n        employeeList.length = employeeList.length.sub(1);\n    }\n    \n    function addFund() payable returns (uint) {\n        NewFund(this.balance);\n        return this.balance;\n    }\n    \n    function calculateRunway() returns (uint) {\n        return this.balance.div(totalSalary);\n    }\n    \n    function hasEnoughFund() returns (bool) {\n        return calculateRunway() > 0;\n    }\n    \n    function checkEmployee(uint index) returns (address employeeId, uint salary, uint lastPayday){\n        employeeId = employeeList[index];\n        var employee = employees[employeeId];\n        salary = employee.salary;\n        lastPayday = employee.lastPayday;\n    }\n\n    function getPaid() existsEmployee(msg.sender) {\n        var employee = employees[msg.sender];\n        //assert(employee.id != 0x0);\n        uint nextPayday = employee.lastPayday + payDuration;\n        assert(nextPayday < now);\n        employees[msg.sender].lastPayday = nextPayday;\n        employee.id.transfer(employee.salary);\n        GetPaid(msg.sender);\n    }\n\n    function checkInfo() returns (uint balance, uint runway, uint employeeCount) {\n        balance = this.balance;\n        employeeCount = totalEmployee;\n        if (totalSalary > 0) {\n            runway = calculateRunway();\n        }\n    }\n}",
  "sourcePath": "/home/juicebox/Code/payroll/contracts/Payroll.sol",
  "compiler": {
    "name": "solc",
    "version": "0.4.19+commit.c4cbbb05.Emscripten.clang"
  },
  "schemaVersion": "2.0.0",
  "updatedAt": "2018-03-30T13:08:12.637Z"
}