{
  "contractName": "PayRoll",
  "abi": [
    {
      "constant": true,
      "inputs": [],
      "name": "owner",
      "outputs": [
        {
          "name": "",
          "type": "address"
        }
      ],
      "payable": false,
      "stateMutability": "view",
      "type": "function"
    },
    {
      "constant": true,
      "inputs": [
        {
          "name": "",
          "type": "address"
        }
      ],
      "name": "employees",
      "outputs": [
        {
          "name": "id",
          "type": "address"
        },
        {
          "name": "salary",
          "type": "uint256"
        },
        {
          "name": "lastPayday",
          "type": "uint256"
        }
      ],
      "payable": false,
      "stateMutability": "view",
      "type": "function"
    },
    {
      "constant": false,
      "inputs": [
        {
          "name": "newOwner",
          "type": "address"
        }
      ],
      "name": "transferOwnership",
      "outputs": [],
      "payable": false,
      "stateMutability": "nonpayable",
      "type": "function"
    },
    {
      "anonymous": false,
      "inputs": [
        {
          "indexed": true,
          "name": "previousOwner",
          "type": "address"
        },
        {
          "indexed": true,
          "name": "newOwner",
          "type": "address"
        }
      ],
      "name": "OwnershipTransferred",
      "type": "event"
    },
    {
      "constant": false,
      "inputs": [
        {
          "name": "employeeId",
          "type": "address"
        },
        {
          "name": "salary",
          "type": "uint256"
        }
      ],
      "name": "addEmployee",
      "outputs": [],
      "payable": false,
      "stateMutability": "nonpayable",
      "type": "function"
    },
    {
      "constant": false,
      "inputs": [
        {
          "name": "employeeId",
          "type": "address"
        }
      ],
      "name": "removeEmployee",
      "outputs": [],
      "payable": false,
      "stateMutability": "nonpayable",
      "type": "function"
    },
    {
      "constant": false,
      "inputs": [
        {
          "name": "employeeId",
          "type": "address"
        },
        {
          "name": "salary",
          "type": "uint256"
        }
      ],
      "name": "updateEmployee",
      "outputs": [],
      "payable": false,
      "stateMutability": "nonpayable",
      "type": "function"
    },
    {
      "constant": false,
      "inputs": [
        {
          "name": "newAddress",
          "type": "address"
        }
      ],
      "name": "changePaymentAddress",
      "outputs": [],
      "payable": false,
      "stateMutability": "nonpayable",
      "type": "function"
    },
    {
      "constant": false,
      "inputs": [],
      "name": "addFund",
      "outputs": [
        {
          "name": "",
          "type": "uint256"
        }
      ],
      "payable": true,
      "stateMutability": "payable",
      "type": "function"
    },
    {
      "constant": true,
      "inputs": [],
      "name": "calculateRunway",
      "outputs": [
        {
          "name": "",
          "type": "uint256"
        }
      ],
      "payable": false,
      "stateMutability": "view",
      "type": "function"
    },
    {
      "constant": false,
      "inputs": [],
      "name": "hasEnoughFund",
      "outputs": [
        {
          "name": "",
          "type": "bool"
        }
      ],
      "payable": false,
      "stateMutability": "nonpayable",
      "type": "function"
    },
    {
      "constant": false,
      "inputs": [],
      "name": "getPaid",
      "outputs": [],
      "payable": false,
      "stateMutability": "nonpayable",
      "type": "function"
    }
  ],
  "bytecode": "0x60606040526000600155336000806101000a81548173ffffffffffffffffffffffffffffffffffffffff021916908373ffffffffffffffffffffffffffffffffffffffff160217905550611183806100586000396000f3006060604052600436106100af576000357c0100000000000000000000000000000000000000000000000000000000900463ffffffff16806323fed09e146100b45780634ec19512146100e15780635e91d8ec1461010a5780637124d6131461014c5780638da5cb5b14610185578063a2f09dfa146101da578063cf41d6f8146101f8578063d06789471461020d578063d108177a14610294578063e7fd9a13146102cd578063f2fde38b1461030f575b600080fd5b34156100bf57600080fd5b6100c7610348565b604051808215151515815260200191505060405180910390f35b34156100ec57600080fd5b6100f4610359565b6040518082815260200191505060405180910390f35b341561011557600080fd5b61014a600480803573ffffffffffffffffffffffffffffffffffffffff1690602001909190803590602001909190505061038c565b005b341561015757600080fd5b610183600480803573ffffffffffffffffffffffffffffffffffffffff16906020019091905050610597565b005b341561019057600080fd5b6101986107ea565b604051808273ffffffffffffffffffffffffffffffffffffffff1673ffffffffffffffffffffffffffffffffffffffff16815260200191505060405180910390f35b6101e261080f565b6040518082815260200191505060405180910390f35b341561020357600080fd5b61020b61082e565b005b341561021857600080fd5b610244600480803573ffffffffffffffffffffffffffffffffffffffff169060200190919050506109dc565b604051808473ffffffffffffffffffffffffffffffffffffffff1673ffffffffffffffffffffffffffffffffffffffff168152602001838152602001828152602001935050505060405180910390f35b341561029f57600080fd5b6102cb600480803573ffffffffffffffffffffffffffffffffffffffff16906020019091905050610a26565b005b34156102d857600080fd5b61030d600480803573ffffffffffffffffffffffffffffffffffffffff16906020019091908035906020019091905050610c71565b005b341561031a57600080fd5b610346600480803573ffffffffffffffffffffffffffffffffffffffff16906020019091905050610e9e565b005b600080610353610359565b11905090565b60006103876001543073ffffffffffffffffffffffffffffffffffffffff1631610ff390919063ffffffff16565b905090565b6000806000809054906101000a900473ffffffffffffffffffffffffffffffffffffffff1673ffffffffffffffffffffffffffffffffffffffff163373ffffffffffffffffffffffffffffffffffffffff161415156103ea57600080fd5b836000600360008373ffffffffffffffffffffffffffffffffffffffff1673ffffffffffffffffffffffffffffffffffffffff168152602001908152602001600020905060008160000160009054906101000a900473ffffffffffffffffffffffffffffffffffffffff1673ffffffffffffffffffffffffffffffffffffffff161415151561047857600080fd5b600360008773ffffffffffffffffffffffffffffffffffffffff1673ffffffffffffffffffffffffffffffffffffffff168152602001908152602001600020935061053884606060405190810160405290816000820160009054906101000a900473ffffffffffffffffffffffffffffffffffffffff1673ffffffffffffffffffffffffffffffffffffffff1673ffffffffffffffffffffffffffffffffffffffff1681526020016001820154815260200160028201548152505061100e565b610553670de0b6b3a7640000866110e590919063ffffffff16565b925061058083610572866001015460015461112090919063ffffffff16565b61113990919063ffffffff16565b600181905550828460010181905550505050505050565b6000336000600360008373ffffffffffffffffffffffffffffffffffffffff1673ffffffffffffffffffffffffffffffffffffffff168152602001908152602001600020905060008160000160009054906101000a900473ffffffffffffffffffffffffffffffffffffffff1673ffffffffffffffffffffffffffffffffffffffff161415151561062757600080fd5b33600360003373ffffffffffffffffffffffffffffffffffffffff1673ffffffffffffffffffffffffffffffffffffffff1681526020019081526020016000209350848460000160006101000a81548173ffffffffffffffffffffffffffffffffffffffff021916908373ffffffffffffffffffffffffffffffffffffffff16021790555083600360008773ffffffffffffffffffffffffffffffffffffffff1673ffffffffffffffffffffffffffffffffffffffff1681526020019081526020016000206000820160009054906101000a900473ffffffffffffffffffffffffffffffffffffffff168160000160006101000a81548173ffffffffffffffffffffffffffffffffffffffff021916908373ffffffffffffffffffffffffffffffffffffffff1602179055506001820154816001015560028201548160020155905050600360008273ffffffffffffffffffffffffffffffffffffffff1673ffffffffffffffffffffffffffffffffffffffff168152602001908152602001600020600080820160006101000a81549073ffffffffffffffffffffffffffffffffffffffff02191690556001820160009055600282016000905550505050505050565b6000809054906101000a900473ffffffffffffffffffffffffffffffffffffffff1681565b60003073ffffffffffffffffffffffffffffffffffffffff1631905090565b600080336000600360008373ffffffffffffffffffffffffffffffffffffffff1673ffffffffffffffffffffffffffffffffffffffff168152602001908152602001600020905060008160000160009054906101000a900473ffffffffffffffffffffffffffffffffffffffff1673ffffffffffffffffffffffffffffffffffffffff16141515156108bf57600080fd5b600360003373ffffffffffffffffffffffffffffffffffffffff1673ffffffffffffffffffffffffffffffffffffffff16815260200190815260200160002093506109186005856002015461113990919063ffffffff16565b92504283111561092757600080fd5b42600360003373ffffffffffffffffffffffffffffffffffffffff1673ffffffffffffffffffffffffffffffffffffffff168152602001908152602001600020600201819055508360000160009054906101000a900473ffffffffffffffffffffffffffffffffffffffff1673ffffffffffffffffffffffffffffffffffffffff166108fc85600101549081150290604051600060405180830381858888f1935050505015156109d657600080fd5b50505050565b60036020528060005260406000206000915090508060000160009054906101000a900473ffffffffffffffffffffffffffffffffffffffff16908060010154908060020154905083565b60008060009054906101000a900473ffffffffffffffffffffffffffffffffffffffff1673ffffffffffffffffffffffffffffffffffffffff163373ffffffffffffffffffffffffffffffffffffffff16141515610a8357600080fd5b816000600360008373ffffffffffffffffffffffffffffffffffffffff1673ffffffffffffffffffffffffffffffffffffffff168152602001908152602001600020905060008160000160009054906101000a900473ffffffffffffffffffffffffffffffffffffffff1673ffffffffffffffffffffffffffffffffffffffff1614151515610b1157600080fd5b83600360008673ffffffffffffffffffffffffffffffffffffffff1673ffffffffffffffffffffffffffffffffffffffff1681526020019081526020016000209350610bd284606060405190810160405290816000820160009054906101000a900473ffffffffffffffffffffffffffffffffffffffff1673ffffffffffffffffffffffffffffffffffffffff1673ffffffffffffffffffffffffffffffffffffffff1681526020016001820154815260200160028201548152505061100e565b610beb846001015460015461112090919063ffffffff16565b600181905550600360008273ffffffffffffffffffffffffffffffffffffffff1673ffffffffffffffffffffffffffffffffffffffff168152602001908152602001600020600080820160006101000a81549073ffffffffffffffffffffffffffffffffffffffff02191690556001820160009055600282016000905550505050505050565b60008060009054906101000a900473ffffffffffffffffffffffffffffffffffffffff1673ffffffffffffffffffffffffffffffffffffffff163373ffffffffffffffffffffffffffffffffffffffff16141515610cce57600080fd5b600360008473ffffffffffffffffffffffffffffffffffffffff1673ffffffffffffffffffffffffffffffffffffffff168152602001908152602001600020905060008160000160009054906101000a900473ffffffffffffffffffffffffffffffffffffffff1673ffffffffffffffffffffffffffffffffffffffff161415610e99576060604051908101604052808473ffffffffffffffffffffffffffffffffffffffff168152602001610d95670de0b6b3a7640000856110e590919063ffffffff16565b815260200142815250600360008573ffffffffffffffffffffffffffffffffffffffff1673ffffffffffffffffffffffffffffffffffffffff16815260200190815260200160002060008201518160000160006101000a81548173ffffffffffffffffffffffffffffffffffffffff021916908373ffffffffffffffffffffffffffffffffffffffff1602179055506020820151816001015560408201518160020155905050610e92600360008573ffffffffffffffffffffffffffffffffffffffff1673ffffffffffffffffffffffffffffffffffffffff1681526020019081526020016000206001015460015461113990919063ffffffff16565b6001819055505b505050565b6000809054906101000a900473ffffffffffffffffffffffffffffffffffffffff1673ffffffffffffffffffffffffffffffffffffffff163373ffffffffffffffffffffffffffffffffffffffff16141515610ef957600080fd5b600073ffffffffffffffffffffffffffffffffffffffff168173ffffffffffffffffffffffffffffffffffffffff1614151515610f3557600080fd5b8073ffffffffffffffffffffffffffffffffffffffff166000809054906101000a900473ffffffffffffffffffffffffffffffffffffffff1673ffffffffffffffffffffffffffffffffffffffff167f8be0079c531659141344cd1fd0a4f28419497f9722a3daafe3b4186f6b6457e060405160405180910390a3806000806101000a81548173ffffffffffffffffffffffffffffffffffffffff021916908373ffffffffffffffffffffffffffffffffffffffff16021790555050565b600080828481151561100157fe5b0490508091505092915050565b6000611050600561104261102f85604001514261112090919063ffffffff16565b85602001516110e590919063ffffffff16565b610ff390919063ffffffff16565b90504260036000846000015173ffffffffffffffffffffffffffffffffffffffff1673ffffffffffffffffffffffffffffffffffffffff16815260200190815260200160002060020181905550816000015173ffffffffffffffffffffffffffffffffffffffff166108fc829081150290604051600060405180830381858888f1935050505015156110e157600080fd5b5050565b60008060008414156110fa5760009150611119565b828402905082848281151561110b57fe5b0414151561111557fe5b8091505b5092915050565b600082821115151561112e57fe5b818303905092915050565b600080828401905083811015151561114d57fe5b80915050929150505600a165627a7a72305820974fefb490344491a822127562ffbe6be058993028e2b6248db82170f7548a9e0029",
  "source": "pragma solidity ^0.4.18;\n\nimport './SafeMath.sol';\nimport './Ownable.sol';\n\ncontract PayRoll is Ownable{\n    \n    using SafeMath for uint;\n    struct Employee {\n        address id;\n        uint salary;\n        uint lastPayday;\n    }\n    uint constant payDuration = 5 seconds;\n    uint private totalSalary = 0;\n    address owner;\n    mapping(address => Employee) public employees;\n    \n    // 员工是否存在\n    modifier employeeExists(address employeeId){\n        var employee = employees[employeeId];\n        require(employee.id != 0x0);\n        _;\n    }\n    \n    // 删除员工\n    modifier deleteEmployee(address employeeId){\n        _;\n        delete employees[employeeId];\n    }\n    \n    // 支付剩余薪酬\n    function _partialPaid(Employee employee) private {\n        uint payment = employee.salary.mul(now.sub(employee.lastPayday)).div(payDuration);\n        employees[employee.id].lastPayday = now;\n        employee.id.transfer(payment);\n    }\n    \n    // 添加员工\n    function addEmployee(address employeeId, uint salary) public onlyOwner{\n        var employee = employees[employeeId];\n        if (employee.id == 0x0) {\n            employees[employeeId] = Employee(employeeId, salary.mul(1 ether), now);\n            totalSalary = totalSalary.add(employees[employeeId].salary);\n        }\n    }\n    \n    // 移除员工\n    function removeEmployee(address employeeId) public onlyOwner employeeExists(employeeId) deleteEmployee(employeeId){\n        var employee = employees[employeeId];\n        _partialPaid(employee);\n        totalSalary = totalSalary.sub(employee.salary);\n    }\n    \n    // 更新员工\n    function updateEmployee(address employeeId, uint salary) public onlyOwner employeeExists(employeeId) {\n        var employee = employees[employeeId];\n        _partialPaid(employee);\n        uint newSalary = salary.mul(1 ether);\n        totalSalary = totalSalary.sub(employee.salary).add(newSalary);\n        employee.salary = newSalary;\n    }\n    \n    // 更新支付地址\n    function changePaymentAddress(address newAddress) public employeeExists(msg.sender) deleteEmployee(msg.sender){\n        var employee = employees[msg.sender];\n        employee.id = newAddress;\n        employees[newAddress] = employee;\n    }\n    \n    // 添加金额\n    function addFund() payable public returns (uint) {\n        return this.balance;\n    }\n    \n    // 计算剩余支付次数\n    function calculateRunway() public view returns (uint) {\n        return this.balance.div(totalSalary);\n    }\n    \n    // 是否还能支付\n    function hasEnoughFund() public returns (bool) {\n        return calculateRunway() > 0;\n    }\n    \n    // 支付\n    function getPaid() public employeeExists(msg.sender){\n        var employee = employees[msg.sender];\n        uint nextPayday = employee.lastPayday.add(payDuration);\n        if(nextPayday > now){\n            revert();\n        }\n        employees[msg.sender].lastPayday = now;\n        employee.id.transfer(employee.salary);\n    }\n}",
  "sourcePath": "/data/truffle/payroll/contracts/PayRoll.sol",
  "compiler": {
    "name": "solc",
    "version": "0.4.19+commit.c4cbbb05.Emscripten.clang"
  },
  "schemaVersion": "2.0.0",
  "updatedAt": "2018-03-28T08:20:11.439Z"
}