{
  "contractName": "Payroll",
  "abi": [
    {
      "constant": true,
      "inputs": [],
      "name": "owner",
      "outputs": [
        {
          "name": "",
          "type": "address"
        }
      ],
      "payable": false,
      "stateMutability": "view",
      "type": "function"
    },
    {
      "constant": true,
      "inputs": [
        {
          "name": "",
          "type": "address"
        }
      ],
      "name": "employees",
      "outputs": [
        {
          "name": "id",
          "type": "address"
        },
        {
          "name": "salary",
          "type": "uint256"
        },
        {
          "name": "lastPayday",
          "type": "uint256"
        }
      ],
      "payable": false,
      "stateMutability": "view",
      "type": "function"
    },
    {
      "constant": false,
      "inputs": [
        {
          "name": "newOwner",
          "type": "address"
        }
      ],
      "name": "transferOwnership",
      "outputs": [],
      "payable": false,
      "stateMutability": "nonpayable",
      "type": "function"
    },
    {
      "anonymous": false,
      "inputs": [
        {
          "indexed": true,
          "name": "previousOwner",
          "type": "address"
        },
        {
          "indexed": true,
          "name": "newOwner",
          "type": "address"
        }
      ],
      "name": "OwnershipTransferred",
      "type": "event"
    },
    {
      "constant": false,
      "inputs": [
        {
          "name": "employeeid",
          "type": "address"
        },
        {
          "name": "salary",
          "type": "uint256"
        }
      ],
      "name": "addEmployee",
      "outputs": [],
      "payable": false,
      "stateMutability": "nonpayable",
      "type": "function"
    },
    {
      "constant": false,
      "inputs": [
        {
          "name": "employeeid",
          "type": "address"
        }
      ],
      "name": "removeEmployee",
      "outputs": [],
      "payable": false,
      "stateMutability": "nonpayable",
      "type": "function"
    },
    {
      "constant": false,
      "inputs": [
        {
          "name": "employeeid",
          "type": "address"
        },
        {
          "name": "salary",
          "type": "uint256"
        }
      ],
      "name": "updateEmployee",
      "outputs": [],
      "payable": false,
      "stateMutability": "nonpayable",
      "type": "function"
    },
    {
      "constant": false,
      "inputs": [
        {
          "name": "employeeid",
          "type": "address"
        },
        {
          "name": "new_id",
          "type": "address"
        }
      ],
      "name": "changePaymentAddress",
      "outputs": [],
      "payable": false,
      "stateMutability": "nonpayable",
      "type": "function"
    },
    {
      "constant": false,
      "inputs": [],
      "name": "addFund",
      "outputs": [
        {
          "name": "",
          "type": "uint256"
        }
      ],
      "payable": true,
      "stateMutability": "payable",
      "type": "function"
    },
    {
      "constant": false,
      "inputs": [],
      "name": "calculateRunway",
      "outputs": [
        {
          "name": "",
          "type": "uint256"
        }
      ],
      "payable": false,
      "stateMutability": "nonpayable",
      "type": "function"
    },
    {
      "constant": false,
      "inputs": [],
      "name": "hasEnoughFund",
      "outputs": [
        {
          "name": "",
          "type": "bool"
        }
      ],
      "payable": false,
      "stateMutability": "nonpayable",
      "type": "function"
    },
    {
      "constant": false,
      "inputs": [
        {
          "name": "employeeid",
          "type": "address"
        }
      ],
      "name": "checkEmployee",
      "outputs": [
        {
          "name": "salary",
          "type": "uint256"
        },
        {
          "name": "lastPayday",
          "type": "uint256"
        }
      ],
      "payable": false,
      "stateMutability": "nonpayable",
      "type": "function"
    },
    {
      "constant": false,
      "inputs": [],
      "name": "getPaid",
      "outputs": [],
      "payable": false,
      "stateMutability": "nonpayable",
      "type": "function"
    }
  ],
  "bytecode": "0x6060604052336000806101000a81548173ffffffffffffffffffffffffffffffffffffffff021916908373ffffffffffffffffffffffffffffffffffffffff16021790555061127c806100536000396000f3006060604052600436106100ba576000357c0100000000000000000000000000000000000000000000000000000000900463ffffffff16806323fed09e146100bf5780634ec19512146100ec5780635e91d8ec146101155780637cf562b7146101575780638da5cb5b146101ab578063a2f09dfa14610200578063bc456c421461021e578063cf41d6f814610276578063d06789471461028b578063d108177a14610312578063e7fd9a131461034b578063f2fde38b1461038d575b600080fd5b34156100ca57600080fd5b6100d26103c6565b604051808215151515815260200191505060405180910390f35b34156100f757600080fd5b6100ff6103d7565b6040518082815260200191505060405180910390f35b341561012057600080fd5b610155600480803573ffffffffffffffffffffffffffffffffffffffff16906020019091908035906020019091905050610403565b005b341561016257600080fd5b61018e600480803573ffffffffffffffffffffffffffffffffffffffff16906020019091905050610704565b604051808381526020018281526020019250505060405180910390f35b34156101b657600080fd5b6101be61075e565b604051808273ffffffffffffffffffffffffffffffffffffffff1673ffffffffffffffffffffffffffffffffffffffff16815260200191505060405180910390f35b610208610783565b6040518082815260200191505060405180910390f35b341561022957600080fd5b610274600480803573ffffffffffffffffffffffffffffffffffffffff1690602001909190803573ffffffffffffffffffffffffffffffffffffffff169060200190919050506107a2565b005b341561028157600080fd5b610289610994565b005b341561029657600080fd5b6102c2600480803573ffffffffffffffffffffffffffffffffffffffff16906020019091905050610b2d565b604051808473ffffffffffffffffffffffffffffffffffffffff1673ffffffffffffffffffffffffffffffffffffffff168152602001838152602001828152602001935050505060405180910390f35b341561031d57600080fd5b610349600480803573ffffffffffffffffffffffffffffffffffffffff16906020019091905050610b77565b005b341561035657600080fd5b61038b600480803573ffffffffffffffffffffffffffffffffffffffff16906020019091908035906020019091905050610dfb565b005b341561039857600080fd5b6103c4600480803573ffffffffffffffffffffffffffffffffffffffff16906020019091905050610fe2565b005b6000806103d16103d7565b11905090565b60006001543073ffffffffffffffffffffffffffffffffffffffff16318115156103fd57fe5b04905090565b60008060009054906101000a900473ffffffffffffffffffffffffffffffffffffffff1673ffffffffffffffffffffffffffffffffffffffff163373ffffffffffffffffffffffffffffffffffffffff1614151561046057600080fd5b826000600360008373ffffffffffffffffffffffffffffffffffffffff1673ffffffffffffffffffffffffffffffffffffffff168152602001908152602001600020905060008160000160009054906101000a900473ffffffffffffffffffffffffffffffffffffffff1673ffffffffffffffffffffffffffffffffffffffff16141515156104eb57fe5b600360008673ffffffffffffffffffffffffffffffffffffffff1673ffffffffffffffffffffffffffffffffffffffff16815260200190815260200160002092506105ab83606060405190810160405290816000820160009054906101000a900473ffffffffffffffffffffffffffffffffffffffff1673ffffffffffffffffffffffffffffffffffffffff1673ffffffffffffffffffffffffffffffffffffffff16815260200160018201548152602001600282015481525050611137565b610602600360008773ffffffffffffffffffffffffffffffffffffffff1673ffffffffffffffffffffffffffffffffffffffff168152602001908152602001600020600101546001546111c390919063ffffffff16565b600181905550670de0b6b3a76400008402600360008773ffffffffffffffffffffffffffffffffffffffff1673ffffffffffffffffffffffffffffffffffffffff1681526020019081526020016000206001018190555042600360008773ffffffffffffffffffffffffffffffffffffffff1673ffffffffffffffffffffffffffffffffffffffff168152602001908152602001600020600201819055506106f7600360008773ffffffffffffffffffffffffffffffffffffffff1673ffffffffffffffffffffffffffffffffffffffff168152602001908152602001600020600101546001546111dc90919063ffffffff16565b6001819055505050505050565b6000806000600360008573ffffffffffffffffffffffffffffffffffffffff1673ffffffffffffffffffffffffffffffffffffffff1681526020019081526020016000209050806001015492508060020154915050915091565b6000809054906101000a900473ffffffffffffffffffffffffffffffffffffffff1681565b60003073ffffffffffffffffffffffffffffffffffffffff1631905090565b60008060009054906101000a900473ffffffffffffffffffffffffffffffffffffffff1673ffffffffffffffffffffffffffffffffffffffff163373ffffffffffffffffffffffffffffffffffffffff161415156107ff57600080fd5b826000600360008373ffffffffffffffffffffffffffffffffffffffff1673ffffffffffffffffffffffffffffffffffffffff168152602001908152602001600020905060008160000160009054906101000a900473ffffffffffffffffffffffffffffffffffffffff1673ffffffffffffffffffffffffffffffffffffffff161415151561088a57fe5b600360008673ffffffffffffffffffffffffffffffffffffffff1673ffffffffffffffffffffffffffffffffffffffff168152602001908152602001600020925061094a83606060405190810160405290816000820160009054906101000a900473ffffffffffffffffffffffffffffffffffffffff1673ffffffffffffffffffffffffffffffffffffffff1673ffffffffffffffffffffffffffffffffffffffff16815260200160018201548152602001600282015481525050611137565b838360000160006101000a81548173ffffffffffffffffffffffffffffffffffffffff021916908373ffffffffffffffffffffffffffffffffffffffff1602179055505050505050565b600080336000600360008373ffffffffffffffffffffffffffffffffffffffff1673ffffffffffffffffffffffffffffffffffffffff168152602001908152602001600020905060008160000160009054906101000a900473ffffffffffffffffffffffffffffffffffffffff1673ffffffffffffffffffffffffffffffffffffffff1614151515610a2257fe5b600360003373ffffffffffffffffffffffffffffffffffffffff1673ffffffffffffffffffffffffffffffffffffffff1681526020019081526020016000209350600a84600201540192504283101515610a7857fe5b82600360003373ffffffffffffffffffffffffffffffffffffffff1673ffffffffffffffffffffffffffffffffffffffff168152602001908152602001600020600201819055508360000160009054906101000a900473ffffffffffffffffffffffffffffffffffffffff1673ffffffffffffffffffffffffffffffffffffffff166108fc85600101549081150290604051600060405180830381858888f193505050501515610b2757600080fd5b50505050565b60036020528060005260406000206000915090508060000160009054906101000a900473ffffffffffffffffffffffffffffffffffffffff16908060010154908060020154905083565b60008060009054906101000a900473ffffffffffffffffffffffffffffffffffffffff1673ffffffffffffffffffffffffffffffffffffffff163373ffffffffffffffffffffffffffffffffffffffff16141515610bd457600080fd5b816000600360008373ffffffffffffffffffffffffffffffffffffffff1673ffffffffffffffffffffffffffffffffffffffff168152602001908152602001600020905060008160000160009054906101000a900473ffffffffffffffffffffffffffffffffffffffff1673ffffffffffffffffffffffffffffffffffffffff1614151515610c5f57fe5b600360008573ffffffffffffffffffffffffffffffffffffffff1673ffffffffffffffffffffffffffffffffffffffff1681526020019081526020016000209250610d1f83606060405190810160405290816000820160009054906101000a900473ffffffffffffffffffffffffffffffffffffffff1673ffffffffffffffffffffffffffffffffffffffff1673ffffffffffffffffffffffffffffffffffffffff16815260200160018201548152602001600282015481525050611137565b610d76600360008673ffffffffffffffffffffffffffffffffffffffff1673ffffffffffffffffffffffffffffffffffffffff168152602001908152602001600020600101546001546111c390919063ffffffff16565b600181905550600360008573ffffffffffffffffffffffffffffffffffffffff1673ffffffffffffffffffffffffffffffffffffffff168152602001908152602001600020600080820160006101000a81549073ffffffffffffffffffffffffffffffffffffffff021916905560018201600090556002820160009055505050505050565b60008060009054906101000a900473ffffffffffffffffffffffffffffffffffffffff1673ffffffffffffffffffffffffffffffffffffffff163373ffffffffffffffffffffffffffffffffffffffff16141515610e5857600080fd5b600360008473ffffffffffffffffffffffffffffffffffffffff1673ffffffffffffffffffffffffffffffffffffffff168152602001908152602001600020905060008160000160009054906101000a900473ffffffffffffffffffffffffffffffffffffffff1673ffffffffffffffffffffffffffffffffffffffff16141515610edf57fe5b610efe670de0b6b3a764000083026001546111dc90919063ffffffff16565b6001819055506060604051908101604052808473ffffffffffffffffffffffffffffffffffffffff168152602001670de0b6b3a76400008402815260200142815250600360008573ffffffffffffffffffffffffffffffffffffffff1673ffffffffffffffffffffffffffffffffffffffff16815260200190815260200160002060008201518160000160006101000a81548173ffffffffffffffffffffffffffffffffffffffff021916908373ffffffffffffffffffffffffffffffffffffffff1602179055506020820151816001015560408201518160020155905050505050565b6000809054906101000a900473ffffffffffffffffffffffffffffffffffffffff1673ffffffffffffffffffffffffffffffffffffffff163373ffffffffffffffffffffffffffffffffffffffff1614151561103d57600080fd5b600073ffffffffffffffffffffffffffffffffffffffff168173ffffffffffffffffffffffffffffffffffffffff161415151561107957600080fd5b8073ffffffffffffffffffffffffffffffffffffffff166000809054906101000a900473ffffffffffffffffffffffffffffffffffffffff1673ffffffffffffffffffffffffffffffffffffffff167f8be0079c531659141344cd1fd0a4f28419497f9722a3daafe3b4186f6b6457e060405160405180910390a3806000806101000a81548173ffffffffffffffffffffffffffffffffffffffff021916908373ffffffffffffffffffffffffffffffffffffffff16021790555050565b6000611179600a61116b6111588560400151426111c390919063ffffffff16565b85602001516111fa90919063ffffffff16565b61123590919063ffffffff16565b9050816000015173ffffffffffffffffffffffffffffffffffffffff166108fc829081150290604051600060405180830381858888f1935050505015156111bf57600080fd5b5050565b60008282111515156111d157fe5b818303905092915050565b60008082840190508381101515156111f057fe5b8091505092915050565b600080600084141561120f576000915061122e565b828402905082848281151561122057fe5b0414151561122a57fe5b8091505b5092915050565b600080828481151561124357fe5b04905080915050929150505600a165627a7a72305820fa2c4163bb9f7d1d927d14465c7ad0f6bd02564b8174e45fc2583a92b506b4550029",
  "source": "pragma solidity ^0.4.14;\r\n\r\nimport './SafeMath.sol';\r\nimport './Ownable.sol';\r\ncontract Payroll is Ownable{\r\n    using SafeMath for uint;\t\r\n\tstruct Employee{\r\n\t\taddress id;\r\n\t\tuint salary;\r\n\t\tuint lastPayday;\r\n\t}\r\n    uint constant payDuration = 10 seconds;\r\n    uint totalSalary;\r\n    address owner;\r\n    mapping(address =>Employee) public employees;\r\n\r\n\r\n    /*function Payroll() {\r\n        owner = msg.sender;\r\n    }    \r\n    \r\n    modifier onlyOwner{\r\n        require(msg.sender==owner);\r\n        _;\r\n    }Ownable have this function*/  \r\n    \r\n    modifier employeeExist(address employeeid){\r\n        var employee=employees[employeeid];\r\n        assert(employee.id!=0x0);\r\n        _;\r\n    }\r\n    \r\n    function _partialPaid(Employee employee) private {\r\n        uint payment = employee.salary.mul(now.sub(employee.lastPayday)).div(payDuration) ;\r\n        employee.id.transfer(payment);\r\n    }\r\n    \r\n    \r\n    function addEmployee(address employeeid,uint salary) onlyOwner{\r\n    \t//require(msg.sender==owner);\r\n        var employee=employees[employeeid];\r\n        assert(employee.id==0x0);\r\n        \r\n        totalSalary=totalSalary.add(salary * 1 ether);\r\n    \temployees[employeeid]=Employee(employeeid,salary*1 ether,now);\r\n    }\r\n\r\n    function removeEmployee(address employeeid) onlyOwner employeeExist(employeeid){\r\n        //require(msg.sender==owner);\r\n        var employee=employees[employeeid];\r\n        //assert(employee.id!=0x0);\r\n        _partialPaid(employee);\r\n        totalSalary=totalSalary.sub(employees[employeeid].salary);\r\n        delete employees[employeeid];\r\n    }\r\n    \r\n    function updateEmployee(address employeeid, uint salary) onlyOwner employeeExist(employeeid){\r\n        //require(msg.sender == owner);\r\n        var employee=employees[employeeid];\r\n        //assert(employee.id!=0x0);\r\n        _partialPaid(employee);\r\n        totalSalary=totalSalary.sub(employees[employeeid].salary);\r\n        employees[employeeid].salary=salary * 1 ether;\r\n        \r\n        employees[employeeid].lastPayday=now;\r\n        totalSalary=totalSalary.add(employees[employeeid].salary);\r\n       \r\n    }\r\n    \r\n    function changePaymentAddress(address employeeid, address new_id) onlyOwner employeeExist(employeeid){\r\n        var employee=employees[employeeid];\r\n        _partialPaid(employee);\r\n        employee.id=new_id;\r\n    }\r\n    \r\n    function addFund() payable returns (uint) {\r\n        return this.balance;\r\n    }\r\n    \r\n    function calculateRunway() returns (uint) {\r\n        return this.balance / totalSalary;\r\n    }\r\n    \r\n    function hasEnoughFund() returns (bool) {\r\n        return calculateRunway() > 0;\r\n    }\r\n    \r\n    function checkEmployee(address employeeid) returns (uint salary ,uint lastPayday){\r\n        var employee= employees[employeeid];\r\n        //return (employee.salary,employee.lastPayday);\r\n        salary=employee.salary;\r\n        lastPayday=employee.lastPayday;\r\n    }\r\n    \r\n    function getPaid() employeeExist(msg.sender) {\r\n        var employee=employees[msg.sender];\r\n        //assert(employee.id!=0x0);\r\n        \r\n        uint nextPayday = employee.lastPayday + payDuration;\r\n        assert(nextPayday < now);\r\n\r\n        employees[msg.sender].lastPayday = nextPayday;\r\n        employee.id.transfer(employee.salary);\r\n    }\r\n}\r\n",
  "sourcePath": "C:\\payroll\\contracts\\Payroll.sol",
  "compiler": {
    "name": "solc",
    "version": "0.4.19+commit.c4cbbb05.Emscripten.clang"
  },
  "schemaVersion": "2.0.0",
  "updatedAt": "2018-03-27T17:13:39.132Z"
}