{
  "contractName": "Payroll",
  "abi": [
    {
      "constant": true,
      "inputs": [],
      "name": "totalPayments",
      "outputs": [
        {
          "name": "",
          "type": "uint256"
        }
      ],
      "payable": false,
      "stateMutability": "view",
      "type": "function"
    },
    {
      "constant": false,
      "inputs": [],
      "name": "withdrawPayments",
      "outputs": [],
      "payable": false,
      "stateMutability": "nonpayable",
      "type": "function"
    },
    {
      "constant": true,
      "inputs": [],
      "name": "owner",
      "outputs": [
        {
          "name": "",
          "type": "address"
        }
      ],
      "payable": false,
      "stateMutability": "view",
      "type": "function"
    },
    {
      "constant": true,
      "inputs": [
        {
          "name": "",
          "type": "address"
        }
      ],
      "name": "employees",
      "outputs": [
        {
          "name": "id",
          "type": "address"
        },
        {
          "name": "salary",
          "type": "uint256"
        },
        {
          "name": "lastPaymentSettlementDate",
          "type": "uint256"
        }
      ],
      "payable": false,
      "stateMutability": "view",
      "type": "function"
    },
    {
      "constant": true,
      "inputs": [
        {
          "name": "",
          "type": "address"
        }
      ],
      "name": "payments",
      "outputs": [
        {
          "name": "",
          "type": "uint256"
        }
      ],
      "payable": false,
      "stateMutability": "view",
      "type": "function"
    },
    {
      "constant": false,
      "inputs": [
        {
          "name": "newOwner",
          "type": "address"
        }
      ],
      "name": "transferOwnership",
      "outputs": [],
      "payable": false,
      "stateMutability": "nonpayable",
      "type": "function"
    },
    {
      "anonymous": false,
      "inputs": [
        {
          "indexed": true,
          "name": "previousOwner",
          "type": "address"
        },
        {
          "indexed": true,
          "name": "newOwner",
          "type": "address"
        }
      ],
      "name": "OwnershipTransferred",
      "type": "event"
    },
    {
      "constant": false,
      "inputs": [
        {
          "name": "employeeId",
          "type": "address"
        },
        {
          "name": "salary",
          "type": "uint256"
        }
      ],
      "name": "addEmployee",
      "outputs": [],
      "payable": false,
      "stateMutability": "nonpayable",
      "type": "function"
    },
    {
      "constant": false,
      "inputs": [
        {
          "name": "employeeId",
          "type": "address"
        }
      ],
      "name": "removeEmployee",
      "outputs": [],
      "payable": false,
      "stateMutability": "nonpayable",
      "type": "function"
    },
    {
      "constant": false,
      "inputs": [
        {
          "name": "employeeId",
          "type": "address"
        },
        {
          "name": "newSalary",
          "type": "uint256"
        }
      ],
      "name": "updateEmployeeSalary",
      "outputs": [],
      "payable": false,
      "stateMutability": "nonpayable",
      "type": "function"
    },
    {
      "constant": false,
      "inputs": [
        {
          "name": "newEmployeeId",
          "type": "address"
        }
      ],
      "name": "changePaymentAddress",
      "outputs": [],
      "payable": false,
      "stateMutability": "nonpayable",
      "type": "function"
    },
    {
      "constant": false,
      "inputs": [],
      "name": "addFund",
      "outputs": [
        {
          "name": "",
          "type": "uint256"
        }
      ],
      "payable": true,
      "stateMutability": "payable",
      "type": "function"
    },
    {
      "constant": true,
      "inputs": [],
      "name": "calculateRunway",
      "outputs": [
        {
          "name": "",
          "type": "uint256"
        }
      ],
      "payable": false,
      "stateMutability": "view",
      "type": "function"
    },
    {
      "constant": true,
      "inputs": [],
      "name": "hasEnoughFund",
      "outputs": [
        {
          "name": "",
          "type": "bool"
        }
      ],
      "payable": false,
      "stateMutability": "view",
      "type": "function"
    },
    {
      "constant": false,
      "inputs": [],
      "name": "getPaid",
      "outputs": [],
      "payable": false,
      "stateMutability": "nonpayable",
      "type": "function"
    },
    {
      "constant": false,
      "inputs": [],
      "name": "getSeverancePay",
      "outputs": [],
      "payable": false,
      "stateMutability": "nonpayable",
      "type": "function"
    }
  ],
  "bytecode": "0x6060604052336000806101000a81548173ffffffffffffffffffffffffffffffffffffffff021916908373ffffffffffffffffffffffffffffffffffffffff16021790555061146c806100536000396000f3006060604052600436106100da576000357c0100000000000000000000000000000000000000000000000000000000900463ffffffff1680625b4487146100df57806323fed09e146101085780634ec19512146101355780635012268d1461015e5780636103d70b146101735780637124d613146101885780638da5cb5b146101c1578063a2f09dfa14610216578063cf41d6f814610234578063d067894714610249578063d108177a146102d0578063e2982c2114610309578063e7fd9a1314610356578063ec34ece814610398578063f2fde38b146103da575b600080fd5b34156100ea57600080fd5b6100f2610413565b6040518082815260200191505060405180910390f35b341561011357600080fd5b61011b610419565b604051808215151515815260200191505060405180910390f35b341561014057600080fd5b61014861042a565b6040518082815260200191505060405180910390f35b341561016957600080fd5b61017161045d565b005b341561017e57600080fd5b61018661053e565b005b341561019357600080fd5b6101bf600480803573ffffffffffffffffffffffffffffffffffffffff1690602001909190505061065d565b005b34156101cc57600080fd5b6101d46109ad565b604051808273ffffffffffffffffffffffffffffffffffffffff1673ffffffffffffffffffffffffffffffffffffffff16815260200191505060405180910390f35b61021e6109d2565b6040518082815260200191505060405180910390f35b341561023f57600080fd5b6102476109f1565b005b341561025457600080fd5b610280600480803573ffffffffffffffffffffffffffffffffffffffff16906020019091905050610a8e565b604051808473ffffffffffffffffffffffffffffffffffffffff1673ffffffffffffffffffffffffffffffffffffffff168152602001838152602001828152602001935050505060405180910390f35b34156102db57600080fd5b610307600480803573ffffffffffffffffffffffffffffffffffffffff16906020019091905050610ad8565b005b341561031457600080fd5b610340600480803573ffffffffffffffffffffffffffffffffffffffff16906020019091905050610c9f565b6040518082815260200191505060405180910390f35b341561036157600080fd5b610396600480803573ffffffffffffffffffffffffffffffffffffffff16906020019091908035906020019091905050610cb7565b005b34156103a357600080fd5b6103d8600480803573ffffffffffffffffffffffffffffffffffffffff16906020019091908035906020019091905050610ee5565b005b34156103e557600080fd5b610411600480803573ffffffffffffffffffffffffffffffffffffffff169060200190919050506110de565b005b60025481565b60008061042461042a565b11905090565b60006104586004543073ffffffffffffffffffffffffffffffffffffffff163161123390919063ffffffff16565b905090565b336000600360008373ffffffffffffffffffffffffffffffffffffffff1673ffffffffffffffffffffffffffffffffffffffff16815260200190815260200160002060000160009054906101000a900473ffffffffffffffffffffffffffffffffffffffff1673ffffffffffffffffffffffffffffffffffffffff161415156104e557600080fd5b6000600160003373ffffffffffffffffffffffffffffffffffffffff1673ffffffffffffffffffffffffffffffffffffffff1681526020019081526020016000205411151561053357600080fd5b61053b61053e565b50565b600080339150600160008373ffffffffffffffffffffffffffffffffffffffff1673ffffffffffffffffffffffffffffffffffffffff1681526020019081526020016000205490506000811415151561059657600080fd5b803073ffffffffffffffffffffffffffffffffffffffff1631101515156105bc57600080fd5b6105d18160025461124e90919063ffffffff16565b6002819055506000600160008473ffffffffffffffffffffffffffffffffffffffff1673ffffffffffffffffffffffffffffffffffffffff168152602001908152602001600020819055508173ffffffffffffffffffffffffffffffffffffffff166108fc829081150290604051600060405180830381858888f19350505050151561065957fe5b5050565b6000336000600360008373ffffffffffffffffffffffffffffffffffffffff1673ffffffffffffffffffffffffffffffffffffffff16815260200190815260200160002060000160009054906101000a900473ffffffffffffffffffffffffffffffffffffffff1673ffffffffffffffffffffffffffffffffffffffff16141515156106e857600080fd5b8273ffffffffffffffffffffffffffffffffffffffff163373ffffffffffffffffffffffffffffffffffffffff161415151561072357600080fd5b82600360003373ffffffffffffffffffffffffffffffffffffffff1673ffffffffffffffffffffffffffffffffffffffff16815260200190815260200160002060000160006101000a81548173ffffffffffffffffffffffffffffffffffffffff021916908373ffffffffffffffffffffffffffffffffffffffff160217905550600360003373ffffffffffffffffffffffffffffffffffffffff1673ffffffffffffffffffffffffffffffffffffffff168152602001908152602001600020600360008573ffffffffffffffffffffffffffffffffffffffff1673ffffffffffffffffffffffffffffffffffffffff1681526020019081526020016000206000820160009054906101000a900473ffffffffffffffffffffffffffffffffffffffff168160000160006101000a81548173ffffffffffffffffffffffffffffffffffffffff021916908373ffffffffffffffffffffffffffffffffffffffff1602179055506001820154816001015560028201548160020155905050600360003373ffffffffffffffffffffffffffffffffffffffff1673ffffffffffffffffffffffffffffffffffffffff168152602001908152602001600020600080820160006101000a81549073ffffffffffffffffffffffffffffffffffffffff0219169055600182016000905560028201600090555050600160003373ffffffffffffffffffffffffffffffffffffffff1673ffffffffffffffffffffffffffffffffffffffff168152602001908152602001600020549150600160003373ffffffffffffffffffffffffffffffffffffffff1673ffffffffffffffffffffffffffffffffffffffff168152602001908152602001600020600090556109a88383611267565b505050565b6000809054906101000a900473ffffffffffffffffffffffffffffffffffffffff1681565b60003073ffffffffffffffffffffffffffffffffffffffff1631905090565b336000600360008373ffffffffffffffffffffffffffffffffffffffff1673ffffffffffffffffffffffffffffffffffffffff16815260200190815260200160002060000160009054906101000a900473ffffffffffffffffffffffffffffffffffffffff1673ffffffffffffffffffffffffffffffffffffffff1614151515610a7a57600080fd5b610a833361131b565b610a8b61053e565b50565b60036020528060005260406000206000915090508060000160009054906101000a900473ffffffffffffffffffffffffffffffffffffffff16908060010154908060020154905083565b6000809054906101000a900473ffffffffffffffffffffffffffffffffffffffff1673ffffffffffffffffffffffffffffffffffffffff163373ffffffffffffffffffffffffffffffffffffffff16141515610b3357600080fd5b806000600360008373ffffffffffffffffffffffffffffffffffffffff1673ffffffffffffffffffffffffffffffffffffffff16815260200190815260200160002060000160009054906101000a900473ffffffffffffffffffffffffffffffffffffffff1673ffffffffffffffffffffffffffffffffffffffff1614151515610bbc57600080fd5b610bc58261131b565b610c1c600360008473ffffffffffffffffffffffffffffffffffffffff1673ffffffffffffffffffffffffffffffffffffffff1681526020019081526020016000206001015460045461124e90919063ffffffff16565b600481905550600360008373ffffffffffffffffffffffffffffffffffffffff1673ffffffffffffffffffffffffffffffffffffffff168152602001908152602001600020600080820160006101000a81549073ffffffffffffffffffffffffffffffffffffffff02191690556001820160009055600282016000905550505050565b60016020528060005260406000206000915090505481565b6000809054906101000a900473ffffffffffffffffffffffffffffffffffffffff1673ffffffffffffffffffffffffffffffffffffffff163373ffffffffffffffffffffffffffffffffffffffff16141515610d1257600080fd5b816000600360008373ffffffffffffffffffffffffffffffffffffffff1673ffffffffffffffffffffffffffffffffffffffff16815260200190815260200160002060000160009054906101000a900473ffffffffffffffffffffffffffffffffffffffff1673ffffffffffffffffffffffffffffffffffffffff16141515610d9a57600080fd5b6060604051908101604052808473ffffffffffffffffffffffffffffffffffffffff168152602001610ddd670de0b6b3a7640000856113e790919063ffffffff16565b815260200142815250600360008573ffffffffffffffffffffffffffffffffffffffff1673ffffffffffffffffffffffffffffffffffffffff16815260200190815260200160002060008201518160000160006101000a81548173ffffffffffffffffffffffffffffffffffffffff021916908373ffffffffffffffffffffffffffffffffffffffff1602179055506020820151816001015560408201518160020155905050610eda600360008573ffffffffffffffffffffffffffffffffffffffff1673ffffffffffffffffffffffffffffffffffffffff1681526020019081526020016000206001015460045461142290919063ffffffff16565b600481905550505050565b6000809054906101000a900473ffffffffffffffffffffffffffffffffffffffff1673ffffffffffffffffffffffffffffffffffffffff163373ffffffffffffffffffffffffffffffffffffffff16141515610f4057600080fd5b816000600360008373ffffffffffffffffffffffffffffffffffffffff1673ffffffffffffffffffffffffffffffffffffffff16815260200190815260200160002060000160009054906101000a900473ffffffffffffffffffffffffffffffffffffffff1673ffffffffffffffffffffffffffffffffffffffff1614151515610fc957600080fd5b600360008473ffffffffffffffffffffffffffffffffffffffff1673ffffffffffffffffffffffffffffffffffffffff16815260200190815260200160002060010154821415151561101a57600080fd5b6110238361131b565b61108c600360008573ffffffffffffffffffffffffffffffffffffffff1673ffffffffffffffffffffffffffffffffffffffff1681526020019081526020016000206001015461107e8460045461142290919063ffffffff16565b61124e90919063ffffffff16565b60048190555081600360008573ffffffffffffffffffffffffffffffffffffffff1673ffffffffffffffffffffffffffffffffffffffff16815260200190815260200160002060010181905550505050565b6000809054906101000a900473ffffffffffffffffffffffffffffffffffffffff1673ffffffffffffffffffffffffffffffffffffffff163373ffffffffffffffffffffffffffffffffffffffff1614151561113957600080fd5b600073ffffffffffffffffffffffffffffffffffffffff168173ffffffffffffffffffffffffffffffffffffffff161415151561117557600080fd5b8073ffffffffffffffffffffffffffffffffffffffff166000809054906101000a900473ffffffffffffffffffffffffffffffffffffffff1673ffffffffffffffffffffffffffffffffffffffff167f8be0079c531659141344cd1fd0a4f28419497f9722a3daafe3b4186f6b6457e060405160405180910390a3806000806101000a81548173ffffffffffffffffffffffffffffffffffffffff021916908373ffffffffffffffffffffffffffffffffffffffff16021790555050565b600080828481151561124157fe5b0490508091505092915050565b600082821115151561125c57fe5b818303905092915050565b6112b981600160008573ffffffffffffffffffffffffffffffffffffffff1673ffffffffffffffffffffffffffffffffffffffff1681526020019081526020016000205461142290919063ffffffff16565b600160008473ffffffffffffffffffffffffffffffffffffffff1673ffffffffffffffffffffffffffffffffffffffff168152602001908152602001600020819055506113118160025461142290919063ffffffff16565b6002819055505050565b600080600360008473ffffffffffffffffffffffffffffffffffffffff1673ffffffffffffffffffffffffffffffffffffffff168152602001908152602001600020915061137682600201544261124e90919063ffffffff16565b905060008111156113e2576113d88260000160009054906101000a900473ffffffffffffffffffffffffffffffffffffffff166113d3600a6113c58660010154866113e790919063ffffffff16565b61123390919063ffffffff16565b611267565b4282600201819055505b505050565b60008060008414156113fc576000915061141b565b828402905082848281151561140d57fe5b0414151561141757fe5b8091505b5092915050565b600080828401905083811015151561143657fe5b80915050929150505600a165627a7a72305820969bed86a2e6b92bfb0568e55446d541e7be5c8d8acf5f92931476e383a556bc0029",
  "source": "pragma solidity ^0.4.18;\n\nimport \"./SafeMath.sol\";\nimport \"./Ownable.sol\";\nimport \"./PullPayment.sol\";\n\n/**\n * @title Payroll\n * @dev Base contract supporting: adding fund, adding employees, removing\n * employees, updating employee salary, calculating runway, checking if balance\n * is enough, transferring contract ownership, allowing employee to get paid,\n * allowing leave-office employee to get severance pay.\n */\ncontract Payroll is Ownable, PullPayment {\n\n    using SafeMath for uint;\n\n    uint constant PAYMENT_DURATION = 10 seconds;\n\n    struct Employee {\n        address id;\n        uint salary;\n        uint lastPaymentSettlementDate; // the last payment settlement date\n    }\n    mapping(address => Employee) public employees;\n    uint private _totalSalary;\n\n    /**\n     * @dev Throws if an employee doesn't exist.\n     * @param employeeId The employee id to be checked.\n     */\n    modifier employee_exist(address employeeId) {\n        require(employees[employeeId].id != 0x0);\n        _;\n    }\n\n    /**\n     * @dev Throws if an employee exists.\n     * @param employeeId The employee id to be checked.\n     */\n    modifier employee_does_not_exist(address employeeId) {\n        require(employees[employeeId].id == 0x0);\n        _;\n    }\n\n    /**\n     * @dev Allows caller to settle the current payment of an employee.\n     * @param employeeId The id of the employee.\n     */\n    function _settlePayment(address employeeId) private {\n        Employee storage employee = employees[employeeId];\n        uint workingdays = now.sub(employee.lastPaymentSettlementDate);\n        if (workingdays > 0) {\n            asyncSend(\n                employee.id,\n                workingdays.mul(employee.salary).div(PAYMENT_DURATION)\n            );\n            employee.lastPaymentSettlementDate = now;\n        }\n    }\n\n    /**\n     * @dev Allows owner to add an employee.\n     * @param employeeId The id of the employee.\n     * @param salary The salary of the employee.\n     */\n    function addEmployee(address employeeId, uint salary)\n        public\n        onlyOwner\n        employee_does_not_exist(employeeId)\n    {\n        employees[employeeId] = Employee(employeeId, salary.mul(1 ether), now);\n        _totalSalary = _totalSalary.add(employees[employeeId].salary);\n    }\n\n    /**\n     * @dev Allows owner to remove an employee.\n     * @param employeeId The id of the employee.\n     */\n    function removeEmployee(address employeeId)\n        public\n        onlyOwner\n        employee_exist(employeeId)\n    {\n        _settlePayment(employeeId);\n        _totalSalary = _totalSalary.sub(employees[employeeId].salary);\n        delete employees[employeeId];\n    }\n\n    /**\n     * @dev Allows owner to change the salary of an employee.\n     * @param employeeId The id of the employee.\n     * @param newSalary The new salary of the employee.\n     */\n    function updateEmployeeSalary(address employeeId, uint newSalary)\n        public\n        onlyOwner\n        employee_exist(employeeId)\n    {\n        require(newSalary != employees[employeeId].salary);\n        _settlePayment(employeeId); // Settle old-rate salary payment\n        _totalSalary = _totalSalary.add(newSalary).sub(employees[employeeId].salary);\n        employees[employeeId].salary = newSalary;\n    }\n\n    /**\n     * @dev Allows an employee to transferring his payment address.\n     * @param newEmployeeId The id of the employee.\n     */\n    function changePaymentAddress(address newEmployeeId)\n        public\n        employee_exist(msg.sender)\n    {\n      require(msg.sender != newEmployeeId);\n      employees[msg.sender].id = newEmployeeId;\n      employees[newEmployeeId] = employees[msg.sender];\n      delete employees[msg.sender];\n      uint payment = payments[msg.sender];\n      delete payments[msg.sender];\n      asyncSend(newEmployeeId, payment);\n    }\n\n    /**\n     * @dev Allows adding funds/balance to the contract.\n     */\n    function addFund() public payable returns (uint) {\n        return address(this).balance;\n    }\n\n    /**\n     * @dev Allows calculating the runway of total salary.\n     */\n    function calculateRunway() public view returns (uint) {\n        return address(this).balance.div(_totalSalary);\n    }\n\n    /**\n     * @dev Allows checking if the contract has enough fund.\n     */\n    function hasEnoughFund() public view returns (bool) {\n        return (calculateRunway() > 0);\n    }\n\n    /**\n     * @dev Allows employee to get paid.\n     */\n    function getPaid() public employee_exist(msg.sender) {\n        _settlePayment(msg.sender);\n        withdrawPayments();\n    }\n\n    /**\n     * @dev Allows left-office employee to get severance pay.\n     */\n    function getSeverancePay()\n        public\n        employee_does_not_exist(msg.sender)\n    {\n        require(payments[msg.sender] > 0);\n        withdrawPayments();\n    }\n}\n",
  "sourcePath": "/home/juicebox/smart_contract/Team-H/Lesson-4/assignment/payroll/contracts/Payroll.sol",
  "compiler": {
    "name": "solc",
    "version": "0.4.19+commit.c4cbbb05.Emscripten.clang"
  },
  "schemaVersion": "2.0.0",
  "updatedAt": "2018-03-25T15:23:26.479Z"
}