{
  "contractName": "Payroll",
  "abi": [
    {
      "constant": true,
      "inputs": [],
      "name": "totalPayments",
      "outputs": [
        {
          "name": "",
          "type": "uint256"
        }
      ],
      "payable": false,
      "stateMutability": "view",
      "type": "function"
    },
    {
      "constant": false,
      "inputs": [],
      "name": "withdrawPayments",
      "outputs": [],
      "payable": false,
      "stateMutability": "nonpayable",
      "type": "function"
    },
    {
      "constant": true,
      "inputs": [],
      "name": "owner",
      "outputs": [
        {
          "name": "",
          "type": "address"
        }
      ],
      "payable": false,
      "stateMutability": "view",
      "type": "function"
    },
    {
      "constant": true,
      "inputs": [
        {
          "name": "",
          "type": "address"
        }
      ],
      "name": "employees",
      "outputs": [
        {
          "name": "id",
          "type": "address"
        },
        {
          "name": "salary",
          "type": "uint256"
        },
        {
          "name": "lastPaymentSettlementDate",
          "type": "uint256"
        }
      ],
      "payable": false,
      "stateMutability": "view",
      "type": "function"
    },
    {
      "constant": true,
      "inputs": [
        {
          "name": "",
          "type": "address"
        }
      ],
      "name": "payments",
      "outputs": [
        {
          "name": "",
          "type": "uint256"
        }
      ],
      "payable": false,
      "stateMutability": "view",
      "type": "function"
    },
    {
      "constant": false,
      "inputs": [
        {
          "name": "newOwner",
          "type": "address"
        }
      ],
      "name": "transferOwnership",
      "outputs": [],
      "payable": false,
      "stateMutability": "nonpayable",
      "type": "function"
    },
    {
      "anonymous": false,
      "inputs": [
        {
          "indexed": true,
          "name": "previousOwner",
          "type": "address"
        },
        {
          "indexed": true,
          "name": "newOwner",
          "type": "address"
        }
      ],
      "name": "OwnershipTransferred",
      "type": "event"
    },
    {
      "constant": true,
      "inputs": [
        {
          "name": "index",
          "type": "uint256"
        }
      ],
      "name": "checkEmployee",
      "outputs": [
        {
          "name": "employeeId",
          "type": "address"
        },
        {
          "name": "salary",
          "type": "uint256"
        },
        {
          "name": "lastPayday",
          "type": "uint256"
        }
      ],
      "payable": false,
      "stateMutability": "view",
      "type": "function"
    },
    {
      "constant": false,
      "inputs": [
        {
          "name": "employeeId",
          "type": "address"
        },
        {
          "name": "salary",
          "type": "uint256"
        }
      ],
      "name": "addEmployee",
      "outputs": [],
      "payable": false,
      "stateMutability": "nonpayable",
      "type": "function"
    },
    {
      "constant": false,
      "inputs": [
        {
          "name": "employeeId",
          "type": "address"
        }
      ],
      "name": "removeEmployee",
      "outputs": [],
      "payable": false,
      "stateMutability": "nonpayable",
      "type": "function"
    },
    {
      "constant": false,
      "inputs": [
        {
          "name": "employeeId",
          "type": "address"
        },
        {
          "name": "newSalary",
          "type": "uint256"
        }
      ],
      "name": "updateEmployeeSalary",
      "outputs": [],
      "payable": false,
      "stateMutability": "nonpayable",
      "type": "function"
    },
    {
      "constant": false,
      "inputs": [
        {
          "name": "newEmployeeId",
          "type": "address"
        }
      ],
      "name": "changePaymentAddress",
      "outputs": [],
      "payable": false,
      "stateMutability": "nonpayable",
      "type": "function"
    },
    {
      "constant": false,
      "inputs": [],
      "name": "addFund",
      "outputs": [
        {
          "name": "",
          "type": "uint256"
        }
      ],
      "payable": true,
      "stateMutability": "payable",
      "type": "function"
    },
    {
      "constant": true,
      "inputs": [],
      "name": "calculateRunway",
      "outputs": [
        {
          "name": "",
          "type": "uint256"
        }
      ],
      "payable": false,
      "stateMutability": "view",
      "type": "function"
    },
    {
      "constant": true,
      "inputs": [],
      "name": "hasEnoughFund",
      "outputs": [
        {
          "name": "",
          "type": "bool"
        }
      ],
      "payable": false,
      "stateMutability": "view",
      "type": "function"
    },
    {
      "constant": false,
      "inputs": [],
      "name": "getPaid",
      "outputs": [],
      "payable": false,
      "stateMutability": "nonpayable",
      "type": "function"
    },
    {
      "constant": false,
      "inputs": [],
      "name": "getSeverancePay",
      "outputs": [],
      "payable": false,
      "stateMutability": "nonpayable",
      "type": "function"
    }
  ],
  "bytecode": "0x6060604052336000806101000a81548173ffffffffffffffffffffffffffffffffffffffff021916908373ffffffffffffffffffffffffffffffffffffffff16021790555061166e806100536000396000f3006060604052600436106100e5576000357c0100000000000000000000000000000000000000000000000000000000900463ffffffff1680625b4487146100ea57806323fed09e146101135780634ec19512146101405780635012268d146101695780636103d70b1461017e5780637124d613146101935780638da5cb5b146101cc57806396b0269614610221578063a2f09dfa14610292578063cf41d6f8146102b0578063d0678947146102c5578063d108177a1461034c578063e2982c2114610385578063e7fd9a13146103d2578063ec34ece814610414578063f2fde38b14610456575b600080fd5b34156100f557600080fd5b6100fd61048f565b6040518082815260200191505060405180910390f35b341561011e57600080fd5b610126610495565b604051808215151515815260200191505060405180910390f35b341561014b57600080fd5b6101536104a6565b6040518082815260200191505060405180910390f35b341561017457600080fd5b61017c6104d9565b005b341561018957600080fd5b6101916105ba565b005b341561019e57600080fd5b6101ca600480803573ffffffffffffffffffffffffffffffffffffffff169060200190919050506106d9565b005b34156101d757600080fd5b6101df610a29565b604051808273ffffffffffffffffffffffffffffffffffffffff1673ffffffffffffffffffffffffffffffffffffffff16815260200191505060405180910390f35b341561022c57600080fd5b6102426004808035906020019091905050610a4e565b604051808473ffffffffffffffffffffffffffffffffffffffff1673ffffffffffffffffffffffffffffffffffffffff168152602001838152602001828152602001935050505060405180910390f35b61029a610ae8565b6040518082815260200191505060405180910390f35b34156102bb57600080fd5b6102c3610b07565b005b34156102d057600080fd5b6102fc600480803573ffffffffffffffffffffffffffffffffffffffff16906020019091905050610ba4565b604051808473ffffffffffffffffffffffffffffffffffffffff1673ffffffffffffffffffffffffffffffffffffffff168152602001838152602001828152602001935050505060405180910390f35b341561035757600080fd5b610383600480803573ffffffffffffffffffffffffffffffffffffffff16906020019091905050610bee565b005b341561039057600080fd5b6103bc600480803573ffffffffffffffffffffffffffffffffffffffff16906020019091905050610dd1565b6040518082815260200191505060405180910390f35b34156103dd57600080fd5b610412600480803573ffffffffffffffffffffffffffffffffffffffff16906020019091908035906020019091905050610de9565b005b341561041f57600080fd5b610454600480803573ffffffffffffffffffffffffffffffffffffffff16906020019091908035906020019091905050611096565b005b341561046157600080fd5b61048d600480803573ffffffffffffffffffffffffffffffffffffffff1690602001909190505061128f565b005b60025481565b6000806104a06104a6565b11905090565b60006104d46006543073ffffffffffffffffffffffffffffffffffffffff16316113e490919063ffffffff16565b905090565b336000600560008373ffffffffffffffffffffffffffffffffffffffff1673ffffffffffffffffffffffffffffffffffffffff16815260200190815260200160002060000160009054906101000a900473ffffffffffffffffffffffffffffffffffffffff1673ffffffffffffffffffffffffffffffffffffffff1614151561056157600080fd5b6000600160003373ffffffffffffffffffffffffffffffffffffffff1673ffffffffffffffffffffffffffffffffffffffff168152602001908152602001600020541115156105af57600080fd5b6105b76105ba565b50565b600080339150600160008373ffffffffffffffffffffffffffffffffffffffff1673ffffffffffffffffffffffffffffffffffffffff1681526020019081526020016000205490506000811415151561061257600080fd5b803073ffffffffffffffffffffffffffffffffffffffff16311015151561063857600080fd5b61064d816002546113ff90919063ffffffff16565b6002819055506000600160008473ffffffffffffffffffffffffffffffffffffffff1673ffffffffffffffffffffffffffffffffffffffff168152602001908152602001600020819055508173ffffffffffffffffffffffffffffffffffffffff166108fc829081150290604051600060405180830381858888f1935050505015156106d557fe5b5050565b6000336000600560008373ffffffffffffffffffffffffffffffffffffffff1673ffffffffffffffffffffffffffffffffffffffff16815260200190815260200160002060000160009054906101000a900473ffffffffffffffffffffffffffffffffffffffff1673ffffffffffffffffffffffffffffffffffffffff161415151561076457600080fd5b8273ffffffffffffffffffffffffffffffffffffffff163373ffffffffffffffffffffffffffffffffffffffff161415151561079f57600080fd5b82600560003373ffffffffffffffffffffffffffffffffffffffff1673ffffffffffffffffffffffffffffffffffffffff16815260200190815260200160002060000160006101000a81548173ffffffffffffffffffffffffffffffffffffffff021916908373ffffffffffffffffffffffffffffffffffffffff160217905550600560003373ffffffffffffffffffffffffffffffffffffffff1673ffffffffffffffffffffffffffffffffffffffff168152602001908152602001600020600560008573ffffffffffffffffffffffffffffffffffffffff1673ffffffffffffffffffffffffffffffffffffffff1681526020019081526020016000206000820160009054906101000a900473ffffffffffffffffffffffffffffffffffffffff168160000160006101000a81548173ffffffffffffffffffffffffffffffffffffffff021916908373ffffffffffffffffffffffffffffffffffffffff1602179055506001820154816001015560028201548160020155905050600560003373ffffffffffffffffffffffffffffffffffffffff1673ffffffffffffffffffffffffffffffffffffffff168152602001908152602001600020600080820160006101000a81549073ffffffffffffffffffffffffffffffffffffffff0219169055600182016000905560028201600090555050600160003373ffffffffffffffffffffffffffffffffffffffff1673ffffffffffffffffffffffffffffffffffffffff168152602001908152602001600020549150600160003373ffffffffffffffffffffffffffffffffffffffff1673ffffffffffffffffffffffffffffffffffffffff16815260200190815260200160002060009055610a248383611418565b505050565b6000809054906101000a900473ffffffffffffffffffffffffffffffffffffffff1681565b600080600080600385815481101515610a6357fe5b906000526020600020900160009054906101000a900473ffffffffffffffffffffffffffffffffffffffff169350600560008573ffffffffffffffffffffffffffffffffffffffff1673ffffffffffffffffffffffffffffffffffffffff16815260200190815260200160002090508060010154925080600201549150509193909250565b60003073ffffffffffffffffffffffffffffffffffffffff1631905090565b336000600560008373ffffffffffffffffffffffffffffffffffffffff1673ffffffffffffffffffffffffffffffffffffffff16815260200190815260200160002060000160009054906101000a900473ffffffffffffffffffffffffffffffffffffffff1673ffffffffffffffffffffffffffffffffffffffff1614151515610b9057600080fd5b610b99336114cc565b610ba16105ba565b50565b60056020528060005260406000206000915090508060000160009054906101000a900473ffffffffffffffffffffffffffffffffffffffff16908060010154908060020154905083565b6000809054906101000a900473ffffffffffffffffffffffffffffffffffffffff1673ffffffffffffffffffffffffffffffffffffffff163373ffffffffffffffffffffffffffffffffffffffff16141515610c4957600080fd5b806000600560008373ffffffffffffffffffffffffffffffffffffffff1673ffffffffffffffffffffffffffffffffffffffff16815260200190815260200160002060000160009054906101000a900473ffffffffffffffffffffffffffffffffffffffff1673ffffffffffffffffffffffffffffffffffffffff1614151515610cd257600080fd5b610cdb826114cc565b610d32600560008473ffffffffffffffffffffffffffffffffffffffff1673ffffffffffffffffffffffffffffffffffffffff168152602001908152602001600020600101546006546113ff90919063ffffffff16565b600681905550600560008373ffffffffffffffffffffffffffffffffffffffff1673ffffffffffffffffffffffffffffffffffffffff168152602001908152602001600020600080820160006101000a81549073ffffffffffffffffffffffffffffffffffffffff0219169055600182016000905560028201600090555050610dc760016004546113ff90919063ffffffff16565b6004819055505050565b60016020528060005260406000206000915090505481565b6000809054906101000a900473ffffffffffffffffffffffffffffffffffffffff1673ffffffffffffffffffffffffffffffffffffffff163373ffffffffffffffffffffffffffffffffffffffff16141515610e4457600080fd5b816000600560008373ffffffffffffffffffffffffffffffffffffffff1673ffffffffffffffffffffffffffffffffffffffff16815260200190815260200160002060000160009054906101000a900473ffffffffffffffffffffffffffffffffffffffff1673ffffffffffffffffffffffffffffffffffffffff16141515610ecc57600080fd5b6060604051908101604052808473ffffffffffffffffffffffffffffffffffffffff168152602001610f0f670de0b6b3a76400008561159890919063ffffffff16565b815260200142815250600560008573ffffffffffffffffffffffffffffffffffffffff1673ffffffffffffffffffffffffffffffffffffffff16815260200190815260200160002060008201518160000160006101000a81548173ffffffffffffffffffffffffffffffffffffffff021916908373ffffffffffffffffffffffffffffffffffffffff160217905550602082015181600101556040820151816002015590505061100c600560008573ffffffffffffffffffffffffffffffffffffffff1673ffffffffffffffffffffffffffffffffffffffff168152602001908152602001600020600101546006546115d390919063ffffffff16565b6006819055506003805480600101828161102691906115f1565b9160005260206000209001600085909190916101000a81548173ffffffffffffffffffffffffffffffffffffffff021916908373ffffffffffffffffffffffffffffffffffffffff1602179055505061108b60016004546115d390919063ffffffff16565b600481905550505050565b6000809054906101000a900473ffffffffffffffffffffffffffffffffffffffff1673ffffffffffffffffffffffffffffffffffffffff163373ffffffffffffffffffffffffffffffffffffffff161415156110f157600080fd5b816000600560008373ffffffffffffffffffffffffffffffffffffffff1673ffffffffffffffffffffffffffffffffffffffff16815260200190815260200160002060000160009054906101000a900473ffffffffffffffffffffffffffffffffffffffff1673ffffffffffffffffffffffffffffffffffffffff161415151561117a57600080fd5b600560008473ffffffffffffffffffffffffffffffffffffffff1673ffffffffffffffffffffffffffffffffffffffff1681526020019081526020016000206001015482141515156111cb57600080fd5b6111d4836114cc565b61123d600560008573ffffffffffffffffffffffffffffffffffffffff1673ffffffffffffffffffffffffffffffffffffffff1681526020019081526020016000206001015461122f846006546115d390919063ffffffff16565b6113ff90919063ffffffff16565b60068190555081600560008573ffffffffffffffffffffffffffffffffffffffff1673ffffffffffffffffffffffffffffffffffffffff16815260200190815260200160002060010181905550505050565b6000809054906101000a900473ffffffffffffffffffffffffffffffffffffffff1673ffffffffffffffffffffffffffffffffffffffff163373ffffffffffffffffffffffffffffffffffffffff161415156112ea57600080fd5b600073ffffffffffffffffffffffffffffffffffffffff168173ffffffffffffffffffffffffffffffffffffffff161415151561132657600080fd5b8073ffffffffffffffffffffffffffffffffffffffff166000809054906101000a900473ffffffffffffffffffffffffffffffffffffffff1673ffffffffffffffffffffffffffffffffffffffff167f8be0079c531659141344cd1fd0a4f28419497f9722a3daafe3b4186f6b6457e060405160405180910390a3806000806101000a81548173ffffffffffffffffffffffffffffffffffffffff021916908373ffffffffffffffffffffffffffffffffffffffff16021790555050565b60008082848115156113f257fe5b0490508091505092915050565b600082821115151561140d57fe5b818303905092915050565b61146a81600160008573ffffffffffffffffffffffffffffffffffffffff1673ffffffffffffffffffffffffffffffffffffffff168152602001908152602001600020546115d390919063ffffffff16565b600160008473ffffffffffffffffffffffffffffffffffffffff1673ffffffffffffffffffffffffffffffffffffffff168152602001908152602001600020819055506114c2816002546115d390919063ffffffff16565b6002819055505050565b600080600560008473ffffffffffffffffffffffffffffffffffffffff1673ffffffffffffffffffffffffffffffffffffffff16815260200190815260200160002091506115278260020154426113ff90919063ffffffff16565b90506000811115611593576115898260000160009054906101000a900473ffffffffffffffffffffffffffffffffffffffff16611584600a61157686600101548661159890919063ffffffff16565b6113e490919063ffffffff16565b611418565b4282600201819055505b505050565b60008060008414156115ad57600091506115cc565b82840290508284828115156115be57fe5b041415156115c857fe5b8091505b5092915050565b60008082840190508381101515156115e757fe5b8091505092915050565b81548183558181151161161857818360005260206000209182019101611617919061161d565b5b505050565b61163f91905b8082111561163b576000816000905550600101611623565b5090565b905600a165627a7a72305820d3977439d9797624a4f9cc64366be2fcc46205cfedcbec8f332eaccc315e20960029",
  "source": "pragma solidity ^0.4.18;\n\nimport \"./SafeMath.sol\";\nimport \"./Ownable.sol\";\nimport \"./PullPayment.sol\";\n\n/**\n * @title Payroll\n * @dev Base contract supporting: adding fund, adding employees, removing\n * employees, updating employee salary, calculating runway, checking if balance\n * is enough, transferring contract ownership, allowing employee to get paid,\n * allowing leave-office employee to get severance pay.\n */\ncontract Payroll is Ownable, PullPayment {\n\n    using SafeMath for uint;\n\n    uint constant PAYMENT_DURATION = 10 seconds;\n\n    struct Employee {\n        address id;\n        uint salary;\n        uint lastPaymentSettlementDate; // the last payment settlement date\n    }\n    address[] employeeList;\n    uint TotalEmployee;\n    mapping(address => Employee) public employees;\n    uint private _totalSalary;\n\n    /**\n     * @dev Throws if an employee doesn't exist.\n     * @param employeeId The employee id to be checked.\n     */\n    modifier employee_exist(address employeeId) {\n        require(employees[employeeId].id != 0x0);\n        _;\n    }\n\n    /**\n     * @dev Throws if an employee exists.\n     * @param employeeId The employee id to be checked.\n     */\n    modifier employee_does_not_exist(address employeeId) {\n        require(employees[employeeId].id == 0x0);\n        _;\n    }\n\n    /**\n     * @dev Allows caller to settle the current payment of an employee.\n     * @param employeeId The id of the employee.\n     */\n    function _settlePayment(address employeeId) private {\n        Employee storage employee = employees[employeeId];\n        uint workingdays = now.sub(employee.lastPaymentSettlementDate);\n        if (workingdays > 0) {\n            asyncSend(\n                employee.id,\n                workingdays.mul(employee.salary).div(PAYMENT_DURATION)\n            );\n            employee.lastPaymentSettlementDate = now;\n        }\n    }\n\n    /**\n     * @dev Allows caller to check the info of an employee.\n     * @param index The index of the employee in employeeList.\n     */\n    function checkEmployee(uint index)\n        public\n        view \n        returns \n        (\n            address employeeId, \n            uint salary, \n            uint lastPayday\n        ) \n    {\n        employeeId = employeeList[index];\n        Employee storage employee = employees[employeeId];\n        salary = employee.salary;\n        lastPayday = employee.lastPaymentSettlementDate;\n    }\n\n    /**\n     * @dev Allows owner to add an employee.\n     * @param employeeId The id of the employee.\n     * @param salary The salary of the employee.\n     */\n    function addEmployee(address employeeId, uint salary)\n        public\n        onlyOwner\n        employee_does_not_exist(employeeId)\n    {\n        employees[employeeId] = Employee(employeeId, salary.mul(1 ether), now);\n        _totalSalary = _totalSalary.add(employees[employeeId].salary);\n        employeeList.push(employeeId);\n        TotalEmployee = TotalEmployee.add(1);\n    }\n\n    /**\n     * @dev Allows owner to remove an employee.\n     * @param employeeId The id of the employee.\n     */\n    function removeEmployee(address employeeId)\n        public\n        onlyOwner\n        employee_exist(employeeId)\n    {\n        _settlePayment(employeeId);\n        _totalSalary = _totalSalary.sub(employees[employeeId].salary);\n        delete employees[employeeId];\n        TotalEmployee = TotalEmployee.sub(1);\n    }\n\n    /**\n     * @dev Allows owner to change the salary of an employee.\n     * @param employeeId The id of the employee.\n     * @param newSalary The new salary of the employee.\n     */\n    function updateEmployeeSalary(address employeeId, uint newSalary)\n        public\n        onlyOwner\n        employee_exist(employeeId)\n    {\n        require(newSalary != employees[employeeId].salary);\n        _settlePayment(employeeId); // Settle old-rate salary payment\n        _totalSalary = _totalSalary.add(newSalary).sub(employees[employeeId].salary);\n        employees[employeeId].salary = newSalary;\n    }\n\n    /**\n     * @dev Allows an employee to transferring his payment address.\n     * @param newEmployeeId The id of the employee.\n     */\n    function changePaymentAddress(address newEmployeeId)\n        public\n        employee_exist(msg.sender)\n    {\n        require(msg.sender != newEmployeeId);\n        employees[msg.sender].id = newEmployeeId;\n        employees[newEmployeeId] = employees[msg.sender];\n        delete employees[msg.sender];\n        uint payment = payments[msg.sender];\n        delete payments[msg.sender];\n        asyncSend(newEmployeeId, payment);\n    }\n\n    /**\n     * @dev Allows adding funds/balance to the contract.\n     */\n    function addFund() public payable returns (uint) {\n        return address(this).balance;\n    }\n\n    /**\n     * @dev Allows calculating the runway of total salary.\n     */\n    function calculateRunway() public view returns (uint) {\n        return address(this).balance.div(_totalSalary);\n    }\n\n    /**\n     * @dev Allows checking if the contract has enough fund.\n     */\n    function hasEnoughFund() public view returns (bool) {\n        return (calculateRunway() > 0);\n    }\n\n    /**\n     * @dev Allows employee to get paid.\n     */\n    function getPaid() public employee_exist(msg.sender) {\n        _settlePayment(msg.sender);\n        withdrawPayments();\n    }\n\n    /**\n     * @dev Allows left-office employee to get severance pay.\n     */\n    function getSeverancePay()\n        public\n        employee_does_not_exist(msg.sender)\n    {\n        require(payments[msg.sender] > 0);\n        withdrawPayments();\n    }\n}\n",
  "sourcePath": "/Users/AurumsyLaw/smart_contract/Lesson-5/assignment/payroll/contracts/Payroll.sol",
  "compiler": {
    "name": "solc",
    "version": "0.4.19+commit.c4cbbb05.Emscripten.clang"
  },
  "schemaVersion": "2.0.0",
  "updatedAt": "2018-03-28T16:13:23.248Z"
}